:020000040800F2
:1000000000800120611B0008AD1B0008AD1B00082B
:10001000AD1B0008AD1B0008AD1B00080000000070
:10002000000000000000000000000000C102000805
:10003000AD1B0008000000005F030008B7030008C4
:10004000AD1B0008AD1B0008AD1B0008AD1B000870
:10005000AD1B0008AD1B0008AD1B0008AD1B000860
:10006000AD1B0008AD1B0008AD1B0008AD1B000850
:10007000AD1B0008AD1B0008AD1B0008AD1B000840
:10008000AD1B0008AD1B0008AD1B00080000000000
:10009000000000000000000000000000AD1B000890
:1000A000AD1B0008AD1B0008AD1B0008AD1B000810
:1000B000AD1B0008AD1B0008AD1B0008AD1B000800
:1000C000AD1B0008AD1B0008AD1B0008AD1B0008F0
:1000D000AD1B0008AD1B0008AD1B000800000000B0
:1000E000AD1B0008AD1B0008AD1B000800000000A0
:1000F000000000000000000000000000AD1B000830
:1001000000000000AD1B0008AD1B0008AD1B00087F
:1001100000000000000000000000000000000000DF
:10012000AD1B0008AD1B0008AD1B0008AD1B00088F
:10013000AD1B0008000000000000000000000000EF
:10014000000000000000000000000000AD1B0008DF
:10015000AD1B0008AD1B0008AD1B0008AD1B00085F
:10016000AD1B0008AD1B00080000000000000000EF
:10017000000000000000000000000000000000007F
:1001800000000000AD1B000800000000000000009F
:10019000AD1B000810B5054C237833B9044B13B1DF
:1001A0000448AFF300800123237010BD68020020D3
:1001B000000000008C9B0008084B10B51BB10848DC
:1001C0000849AFF300800848036803B910BD074B26
:1001D000002BFBD0BDE81040184700BF0000000016
:1001E0008C9B00086C0200206402002000000000CC
:1001F000154B002B08BF134B9D46A3F5803A0021F9
:100200008B460F461348144A121A03F093FC0F4B07
:10021000002B00D098470E4B002B00D098470020B1
:10022000002104000D000D48002802D00C4803F006
:10023000E4F803F0E1FB2000290001F05DFC03F08D
:10024000F7F800BF00000800008001200000000057
:1002500015050008680200204C110020FB3300083F
:10026000E537000880F309887047EFF3098070478D
:10027000684680F3098856480078C00714BF0220FA
:10028000032080F314887047DFF848C1EFF305833B
:100290001B0618BF6047EFF31483DB0708BF6047F6
:1002A00000DF7047DFF830C1EFF305831B0618BF8E
:1002B0006047EFF31483DB0708BF604700DF704738
:1002C000EFF30980816911F8021CC1BB90E80F109F
:1002D00010B5E047BDE81040EFF3098C8CE807004B
:1002E0003E4B93E80600914208BF704741B91EF0AB
:1002F000100F14D13A49086820F0010008600EE0A0
:100300001EF0100F0CBF0120002081F825002CE901
:10031000F00FC1F82CC00CB400F09AFE0CBC1A60AF
:10032000D2F82CC0BCE8F00F92F8250000280CBFD2
:100330006FF0020E6FF0120E8CF30988704710B543
:10034000284A1268914209D8274C54F8214090E875
:100350000F10A047EFF3098C8CE80F0010BD10B50B
:1003600000F006FEBDE810401C4B93E806009142E9
:1003700008BF7047EFF3098C1EF0100F0CBF01206F
:10038000002081F825002CE9F00FC1F82CC00CB436
:1003900000F05EFE0CBC1A60D2F82CC0BCE8F00F76
:1003A00092F8250000280CBF6FF0020E6FF0120EBD
:1003B0008CF30988704710B500F02CFEFFF7D2BF10
:1003C00010B500F025FE00F025FEFFF7CBBF0000C2
:1003D0003C9200086B0E0008850E0008080C0020F7
:1003E00034EF00E000000000FCFFFFFF704700005A
:1003F00008B5024B1B689847FBE700BF9801002037
:10040000836A9B0804BF214B1B88F0B5046B08BFAF
:100410009B0804EB8302550748BF043A4FF08076EF
:1004200002E94200A2F14005A2F14406A2F10C0744
:100430004FF0000E46F804EFBE42F9D1C66942F80B
:10044000206C124AC56212684163D2001AD5112B82
:1004500018D9A3F110025208531E29463BB14FF0A0
:10046000CC3041F8040C013B41F8080DF6E7D2000E
:10047000C2F10802AB181A1F94423CBF4FF0CC32B5
:1004800043F8042C024B2360F0BD00BF209200080B
:10049000A52E5AE290F82520C36A0AB1603300E025
:1004A00020331960704710B590F82540C36A0CB12D
:1004B000603300E0203383E8060010BD08B505482E
:1004C00002F09BFF03F098FA00200146BDE80840C7
:1004D00001F012BBE5370008FFF78ABF10B50446EC
:1004E00000F0F6F821460246BDE81040014802F04F
:1004F000EBBC00BF3D9200080449054AC1F100531E
:1005000003F5BE33D3601161704700BF4C1100206A
:100510009C01002000F092F9FFF7EEFF0348002154
:1005200000F0F0F800F076F8FEE700009C010020F3
:1005300000B5DFF80CC000DFDFF808C000DFFEE721
:10054000D1060008E90600080B4A136830B50024FC
:1005500033B19D68A94203D31C46491B1B68F7E7CA
:100560000360816013B19D68691A99600CB12060C5
:1005700030BD106030BD00BFC00B0020C0B1431CB7
:1005800011D00C4B984211D80B4B1B684FF47A7169
:100590005A1E01FB0020B0FBF3F34FF6FE708342BE
:1005A00006D898B270474FF6FF7070474FF6FE704E
:1005B000704700BF00093D001892000838B183075A
:1005C00004D10378002B18BF00207047002070472B
:1005D00038B50E4D2878B0B90D4C236893F8241027
:1005E00000F0A6FD2368DA78FF2A03D1DA6A203208
:1005F00082F309886168064A09B982E80A0000F0B6
:1006000045FF01232B70002038BD00BFC40B002024
:10061000080C002010B588B0EFF3058434BBEFF36D
:10062000148404F00304022C0CD0032C16D0012CEB
:100630001ED008AC84F309880F4C2478E40705D554
:10064000022404E00C4C2478E4070BD4032484F344
:100650001488BFF34F8FBFF36F8F03E0064C2478ED
:10066000E40705D4DFF814C000DF02E0822000E0D8
:10067000FF2008B010BD00BF3C920008D105000863
:1006800010B50B46024608B9002010BD00680028CE
:10069000FAD09488E11C89B20629F5D8D16809B14D
:1006A000126900E00A4624B2043444EA012100F051
:1006B0007DFD0028E8D0044B044A013853F820009F
:1006C000C36A5A6310BD00BF580B002031050008F3
:1006D00008B500F025FD18B10138024B53F8200091
:1006E00008BD00BF580B002008B5FFF767FF38B101
:1006F000C07800F0ADFDFF280CBF8120002008BDB0
:10070000802008BD70B505460C46EFF3058686B916
:10071000EFF31486F60706D4074E36781EB9BDE807
:100720007040FFF7ADBF28462146DFF810C000DF5C
:1007300070BD002070BD00BFC40B00208106000802
:1007400010B5EFF305841CB9DFF808C000DF10BD59
:10075000822010BDE906000808B528B1FFF70EFF9A
:1007600000F0DAFE402008BD08BD000010B5EFF330
:1007700005841CB9DFF808C000DF10BD822010BD61
:1007800059070008830704D128B1436901691B6830
:1007900003E0002300E003461946184670470000B6
:1007A00010B504460846DFF80CC000DF84E80300FB
:1007B000204610BD8507000810B5044660B10168E9
:1007C00059B1406860B103784BB90431890089B2EE
:1007D00000F026FA606810BD10BD084610BD00206C
:1007E00010BD000038B50E4C23780BB900F0D6FDD3
:1007F0000C4B25781B68FF229A705DB929460A4880
:10080000FFF7DAFF094B294618600948FFF738FF60
:10081000084B186001232370074B0020187038BD67
:10082000BC0B0020080C0020A0920008B80B002090
:1008300028920008940B0020C40B002010B5EFF3A1
:1008400005845CB9EFF31484E40703D4BDE81040D9
:10085000FFF7C8BFDFF808C000DF10BD822010BD61
:10086000E50700082DE9F04F0C4685B08046E8B159
:100870000378012B1FD10846FFF780FE02A902462C
:10088000404600F0DBF9012806D10020002C02468A
:10089000034618BF402003E0002002460346102014
:1008A000029904460D4616461F4608E08024054678
:1008B0000646074603E0002580242E462F462046A4
:1008C000294632463B4605B0BDE8F08F70B50E466E
:1008D0001446054660B15AB90378012B08D100F0DF
:1008E000FFF938B12846314600F0FEF9204670BDC8
:1008F000802070BD812070BD114B70B51C681E46F4
:10090000E4B1A368013BA360A268BAB90D4B2568A6
:10091000186835602146FFF7D9FF10B10420FFF7B2
:10092000DDFD6379012B04D12046E168FFF70CFE61
:1009300001E0012323710DB12C46E5E770BD00BF36
:10094000C00B0020B80B00207FB50446164601B14D
:1009500012B18023236011E00B78012BF9D10846F6
:1009600002A900F0C8F9042808BF102301AD14BF84
:100970000196019395E8070084E80700204604B03B
:1009800070BD0000F8B50446EFF3058717B1FFF717
:10099000DBFF06E008461146DFF80CC000DF84E804
:1009A00007002046F8BD0000650800087FB50A4B27
:1009B00003A819684FF0FF32FFF7E4FF039B102BE9
:1009C000F5D101A80499FFF7EBFE019B002BEED0B7
:1009D00002989847EBE700BFB80B002010B5038BD7
:1009E00042781943062A04460183438B04D101EA65
:1009F00003029A4219D105E0052A16D111EA030231
:100A000013D0428321EA03012183204600F0D4F869
:100A10000123204663700821628BFFF744FD2146C5
:100A20000248BDE8104000F003B810BDE00B002004
:100A300030B502788C784368013AD2B22BB19D78F8
:100A4000A54202D318465B68F8E7022A4B60416072
:100A500003D803B19960886030BD00238B6030BD3E
:100A600002784368013A59684160022A4FF0000257
:100A700004D809B188605A609A6000E05A6018464C
:100A800070470000034B5A68426000228260586041
:100A9000704700BFE00B0020114BDA6810B50AB1B7
:100AA0009A8A0CE000248A1AC460D86003619A8292
:100AB000848210BD002CF5D0A38A1A4423468A42B2
:100AC000DC68F7D3C460D860C468036104B12061F6
:100AD000521A92B28282998A8A1A9A8210BD00BFF3
:100AE000C80B002038B5194DEB68002B2CD0AB8A11
:100AF000013BAB82AA8A002A26D1144BDC681CB3C6
:100B0000A3683BB161685960616809B18B6062603C
:100B10000023A3600E482146FFF78AFFA38AAB8219
:100B20006378042B01BF0B4B1A68E38A9B1808BF3C
:100B3000A38201236370E368EB60002213B10349D1
:100B40001961E2602261D5E738BD00BFC80B002003
:100B5000E00B0020480C0020836853B9084B5A680A
:100B6000824202D142685A6070471346002AF6D189
:100B7000704742685A60426802B19360704700BF94
:100B8000E00B002038B58468054624B94378012B72
:100B90000ED1084C03E023780BB9A468FBE7284684
:100BA000FFF7DAFF20462946BDE83840FFF740BF8F
:100BB00038BD00BFE00B0020036910B573B1C268F7
:100BC000DA60C2683AB1998A848A214499821361B1
:100BD0000023C36000E09A820023036110BD00007F
:100BE00030B50E4BDD78EFF3108272B69A78AA42D8
:100BF00007D201329A701A78541CAC4208BF002404
:100C00001C7062B6AA4204D203EBC203586099601A
:100C100030BD0220BDE83040FFF760BC88020020F4
:100C200001231039037089080023437083704360E7
:100C3000038143818381C1817047000070B585893C
:100C400004461646002D34D043891A1D013350F84E
:100C500022200A60C2899BB29A42438104BF0023CA
:100C600043814368EBB14378022B1AD1FFF7F8FEBA
:100C700000210546FFF70EFC2389E9691A1D01339F
:100C800044F82210E2899BB29A42238108BF0023D4
:100C9000284608BF2381FFF78FFF284600F004FA9B
:100CA00005E0EFF3108372B6013DA58162B6002026
:100CB00070BD82B14268094B1AB11968FFF7B8FEDE
:100CC00005E01B6843605A6098600123437030461A
:100CD000082100F00BFA012070BD00BF080C0020B5
:100CE000C2898089101A704708B5FFF779FFBDE8FF
:100CF000084000F02BB9838910B50446EBB1438955
:100D0000043350F823300B604378022B04D10021C8
:100D1000FFF766FF00F01AF9EFF3108372B6A389AC
:100D2000013BA38162B66389E28901339BB29A4297
:100D3000638104D10023638101E0184610BD0420C3
:100D400010BD0000426870B504460E46002A4AD025
:100D50004578022D1CD0032D0AD0012D5DD1FFF75F
:100D60007FFE044610213246FFF79DFB657034E09C
:100D7000084600F07AF8054600284ED02046FFF7D6
:100D80006FFE29460446FFF785FB0123637024E0CC
:100D9000FFF766FE00210546FFF77CFB2389E96922
:100DA0001A1D44F82210EFF3108272B6A2890132A4
:100DB000A28162B6E28901339BB29A42238104BFC9
:100DC00000232381012328466B70FFF7F5FE1348AB
:100DD0002946BDE87040FFF72BBE2046FFF7ECFE2A
:100DE0000E482146F5E78189C089814210D22389C6
:100DF0001D1D44F82560EFF3108572B60131A18105
:100E000062B601339BB2834214BF2381228170BD3D
:100E10000320BDE87040FFF761BB70BDE00B002010
:100E2000002ABBBF22F000420732033222F0070241
:100E3000A8BF22F0030210B5B4BF10230C2392B157
:100E40009C188C420FD80144034454424160036013
:100E5000826021449818884202D800510346F9E77D
:100E60000020186010BD012010BDEFF3108372B692
:100E7000026803F001030AB11168016003B962B6A8
:100E800010467047814203460DD3426891420AD210
:100E9000EFF3108072B61A680A6010F00100196052
:100EA00003D162B6704701207047002070470000F0
:100EB000034B00221A60034A1268DA80704700BFB1
:100EC000F80B00209C92000808B5104B10485A6897
:100ED000104B196891421FBF1A60DA8802F1FF3186
:100EE00002681CBF52189A809A8803889A420BD1D4
:100EF000084B064800221A60FFF7B2FDBDE8084023
:100F000001460248FFF794BD08BD00BFE00B00207A
:100F1000480C0020F80B0020426810B57AB1FFF7AA
:100F20009FFD0446FFF748FE012161702046FFF750
:100F3000B1FA21460448BDE81040FFF779BD428868
:100F40000132428010BD00BFE00B0020054B1B7832
:100F500023B9054B4FF080521A607047034B0122B2
:100F60001A707047050C002004ED00E0040C00200E
:100F700038B5184B184D186801234370FFF782FDF0
:100F80006C78AA78144BEAB103EBC4035868027872
:100F90001AB91989FFF722FD07E0012A03D19968E0
:100FA000FFF7D0FE01E0FFF7B7FFEB7801349C427A
:100FB00008BF0024EFF3108372B6AB78013BAB702F
:100FC00062B6DEE75C700548FFF74AFDBDE83840D1
:100FD00000F062B8080C002088020020E00B00201E
:100FE000084B1A68084B1A6000225A60072243F81F
:100FF000042C064A136843F07F4313604FF0FF3020
:10100000704700BFA892000814E000E020ED00E067
:101010007047000008B50B4B186801234370FFF7B9
:1010200031FDFFF751FF084A136801331360FFF7E2
:1010300059FDFFF761FC0548FFF712FDBDE80840C8
:1010400000F02AB8080C0020480C0020E00B00201B
:10105000084B1B68DA78022A0AD01A6BDB6A9A42BC
:1010600003D81268044B9A4202D00120FFF736BA27
:10107000704700BF080C0020A52E5AE208B50448AE
:10108000FFF7EEFC034B58600223437008BD00BF1E
:10109000E00B0020080C0020024B58600223437034
:1010A000704700BF080C002070B5044618B9BDE8B1
:1010B0007040FFF7E3BF0B4DA278286883789A420F
:1010C0004FF0010607D9FFF7DDFC2B685E700223A5
:1010D0006C60637070BD667021460348BDE8704067
:1010E000FFF7A6BC080C0020E00B002038B50D4629
:1010F000014678B14FF6FF739842074C02D0206842
:10110000FFF7CAFC236805485D70FFF7A9FC0223BE
:101110006060437038BD00BF080C0020E00B002069
:10112000024B186800B1C078704700BF080C00205F
:1011300010B598B9194B1B68997083F8241018489A
:1011400043689B788B4224D9144C2168FFF770FCCC
:10115000236801225A70FFF791FF1AE0114B1B8898
:10116000984218D80138104B53F820409CB10B4BD3
:10117000A1701B6884F824109C42E0D02046FFF741
:1011800001FD6378012B04D10548FFF769FCFFF7E7
:101190008BFF002010BDFF2010BD00BF080C0020F9
:1011A000E00B002024920008580B00202DE9F047A6
:1011B00011F0FF0F0D468146214816469A4608BF9A
:1011C0000135FFF752FE044610B90020BDE8F08754
:1011D0001C4B06631B88280AA06200214E1C9E42FD
:1011E000F3D8194F07EB8602884652F8042C314693
:1011F000002AF3D1EDB20123E670C4F81CA02270DE
:101200006370A57084F824506260A260E26022617D
:101210002262A282E2822283628384F8252018B9A6
:101220000A48FFF722FE206320464946FFF7E8F808
:10123000204647F82840FFF737FF3046BDE8F087E3
:101240000C03002024920008580B002028060020E0
:101250002DE9F0474B4D18B12B68DB7898423BD114
:101260002C6800236370FFF700F8E062FFF7F0FEE0
:101270002B681C6AFCB16368BBB12046FFF7F0FB2A
:10128000002106460127FFF705F93046FFF794FCD9
:1012900077703D483146FFF7CBFBE368326A6780E1
:1012A000A660E26034621C46E4E7E2686380A36003
:1012B000E3601446DEE72A683449D3783448013BBA
:1012C00041F82340116BFFF7DDFD296831480C63BD
:1012D000FFF7D8FD2C604CE02F4B1B8898424BD871
:1012E0002A4B00F1FF389A4653F82860002E43D06D
:1012F0003046FFF731FC3046FFF75EFC346A14B32A
:101300006368D3B12046FFF7ABFB002107464FF0DF
:101310000109FFF7BFF83846FFF74EFC87F8019048
:1013200019483946FFF784FBE3683A6AA4F802904B
:10133000A760E2603C621C46E1E7E2686380A3606C
:10134000E3601446DBE74AF828401148316BFFF7A9
:1013500099FD314634630F48FFF794FD0A48296828
:1013600043689A788B789A4209D901234B70FFF72A
:101370005FFBFFF783FE02E0FF20BDE8F087204619
:10138000BDE8F087080C0020E00B0020580B00207F
:10139000280600200C0300202492000838B52B4BAF
:1013A0001A880023934205D22949002041F82300DE
:1013B0000133F7E7274B28481988284D3822FFF7D3
:1013C0002FFD274B27481A88274B42F00042196807
:1013D000FFF726FD254B1868254B08221988FFF7D3
:1013E0001FFDFF230024EB701E48AC6201236B70CD
:1013F0002C70AC7085F824406C60AC60EC602C61A3
:101400002C62AC82EC822C836C8385F82540FFF73C
:101410002CFD184928632846FEF7F2FF164B0422DC
:101420001A705C60154B1A70DC601C619C82144B56
:10143000144A1D6002236B70134B12781C705C7091
:10144000DA70BDE83840FFF733BD00BF24920008D2
:10145000580B0020269200080C030020100C0020DE
:1014600020920008280600201C9200088402002018
:1014700098920008D9040008E00B0020C80B002057
:10148000080C0020AC9200088802002008B51E4B12
:101490001A6842F47F021A601B681B0203F07F4344
:1014A000DB43B3FA83F3194A19481268DBB2C3F17C
:1014B0000803C2F302229A4228BF531C6FF08071C6
:1014C000026801FA03F303F07F4122F07F430B43EC
:1014D0000360FFF785FD0F4B0028186012DB00F159
:1014E000604000F56440FF2202701A6853099B00B7
:1014F00003F1604303F5614302F01F02012101FA89
:1015000002F21A6008BD00BF20ED00E00CED00E023
:101510001CED00E0000C00200321FFF7E7BD704741
:1015200008B54FF47A7000F0BCF8024803F010FDE3
:10153000F7E700BFAD92000810B5064B036003F15A
:1015400018024C330446C26503665C3001F09EFC11
:10155000204610BDD8940008A0F15C00FFF7ECBF56
:10156000A0F16000FFF7E8BF10B5044601F01AFFD4
:10157000204610BD00B509488BB003F0E9FC4FF4DC
:10158000006300220093019202A80549134600F06F
:101590003BF84FF4FA7000F084F8FAE7C6920008BE
:1015A0002115000810B50446FFF7C6FF204601F0DC
:1015B000F9FE204610BDA0F15C00F3E7A0F1600049
:1015C000F0E7000010B50C4C002320460221032256
:1015D00001F0A8FB2046094C09490A4A01F0F7FE30
:1015E00020460021102202F0A5FA20460521BDE880
:1015F000104001F07BBC00BF5C0C00204C0C0020B4
:10160000391500089401002070B5049D0446059822
:1016100065611646124A2260A160A381AD0810B12F
:10162000A061002309E0B5F1FE5F94BFA8004FF070
:10163000FF3001F0D1FE0123A06123770023AB42EC
:1016400005D0A269074942F823100133F7E704F1F6
:1016500008003146FFF756F86060204670BD00BFB5
:10166000F0920008A52E5AE24068FFF769B8000022
:1016700010B5064B03600446FFF7F6FF237F1BB14E
:10168000A06908B101F0A1FE204610BDF09200084B
:1016900010B50446FFF7ECFF204601F083FE20461C
:1016A00010BDFFF763B8000000B585B072B6052124
:1016B000684601F01BFC10E0039B019A1A6096201B
:1016C00001F0C0FC9DF90030013310D0019B039A5A
:1016D0001B041360962001F0B5FC9DF90030013326
:1016E000EAD106480649342201F0E2FBE4E7034868
:1016F0000349342201F0DCFBE8E700BFF892000860
:10170000109300080F4A30B493689468B4F1006FE6
:101710001A4604D0103030BC42F8201070470A4AF4
:1017200003F5CA7553F8044B42F8044FAB42F9D1A4
:101730004FF00052034B10309A6030BC42F820103A
:10174000704700BF00ED00E0FCFFFF1F70B5114CBB
:101750002368DA68910715D4DA68520709D56FF063
:1017600004020D4E1A615D6A3368EB1AB3F57A7F95
:1017700000D270BD00F036FA2368356005F57A7541
:101780009D6370BD6FF002021A6101F023FC2368B3
:10179000E2E700BFE8100020D00C0020244B30B559
:1017A0001A6C244C42F008021A641A6C83B002F0DE
:1017B00008020192019A1A6A42F008021A621A6A31
:1017C00022F008021A6200F0D3FF1B4B1B4A1B6871
:1017D0001B492160A2FB03239B0C0025013B4FF01A
:1017E000FF3220466360E2602561A560656100F01C
:1017F000A9FE32201349FFF785FF134B4FF48022D7
:101800005A602946204600F02FFE2046042100F0B1
:101810002BFE23680D495A6A0A6002F57A729A63B0
:10182000DA68284642F00402DA6003B030BD00BF37
:1018300000380240E8100020B401002083DE1B4382
:10184000000C00404D17000800E100E0D00C002023
:1018500008B500F08DFFBDE8084000F0A9B900BF51
:10186000036870B51B690021012204469847431C98
:1018700006460ED0236820461B69002102229847A5
:101880002368054631461B692046002298472846B2
:1018900070BD70BD02480221032201F0C3B800BF31
:1018A00024110020084B094A026010B403F580712E
:1018B000002453F8042F824208BF1C608B42F8D1E9
:1018C0005DF8044B704700BFD00C0020A8930008BF
:1018D000F0B50E4685B03649054603F018FD20B92F
:1018E000344B1B6863B105B0F0BD2846324903F0A4
:1018F0000EFD78B92F4B1B6843B1012005B0F0BD38
:101900000190FFF7C7FF019805B0F0BDFFF7C2FFD8
:101910000120E8E72846294903F0F9FC10B3284BD9
:10192000002402E00134402C21D053F8042F002A77
:10193000F8D12B783A2B33D0294602A801F08AF946
:1019400002A801F0DDF990B102A801F0BFF988B159
:1019500002A801F0C5F903464BB11A4AE01C42F84F
:101960002430C0E7134B1B68B3B10220BBE74FF034
:10197000FF30B8E702A801F099F905460028F6D033
:10198000036802A89F6801F08FF926F480320146AF
:101990002846B8470346DFE7FFF77CFF0220A2E7AF
:1019A0002846094902AA03F043FC029BD4E700BF82
:1019B00084930008FC0D0020949300088C93000889
:1019C000D00C0020D40C0020CC93000802280ADDA3
:1019D000C31E074A52F82300002142F8231020B109
:1019E00003685B681847002070474FF0FF3070476E
:1019F000D40C0020022812DC0E4B1B6870B50C467C
:101A000016460BB9FFF746FFA51936B114F8011BAE
:101A1000094801F0CFF8AC42F8D1304670BD033828
:101A2000064B53F8200010B103681B6818474FF0AD
:101A3000FF307047FC0D002024110020D40C002042
:101A400002280DDC0C4B1B6810B50C460BB9FFF7D8
:101A500021FF0A4801F0A0F801232070184610BDAC
:101A60000338074B53F8200010B103689B681847F0
:101A70004FF0FF3318467047FC0D00202411002062
:101A8000D40C0020022807DD0338064B53F8200051
:101A900020B10368DB681847012070474FF0FF3022
:101AA000704700BFD40C0020022807DD0338064B26
:101AB00053F8200020B103681B69184700207047C5
:101AC0004FF0FF30704700BFD40C0020022808B54B
:101AD00004D84FF400534B60002008BD01F0A2FC75
:101AE000092303604FF0FF3008BD00BF08B5012097
:101AF00001F09EFC704700BF08B5FFF7A9FEFFF795
:101B0000F9FFBDE80840FFF735BD00BF074A13687D
:101B10001844EFF30881884202D2106018467047DB
:101B2000034B0C221A604FF0FF307047B0010020C9
:101B300048110020074C08B523680546986801F055
:101B400093FD2368D86801F08FFD05B9FEE7FFF724
:101B5000ABFDFBE718020020002103F06DBA00BFC7
:101B6000DFF830D0002103E00B4B5B5843500431C9
:101B70000A480B4B42189A42F6D30A4A02E0002365
:101B800042F8043B084B9A42F9D300F0D1FEFEF72D
:101B90002FFB704700800120C09B000894010020AB
:101BA00068020020680200204C110020FEE70000BF
:101BB00008B50B4B1A6842F400721A601A6842F4B6
:101BC00080621A601A6842F480721A60032000F082
:101BD00017F80F20FFF7E2FD00F024F8002008BD01
:101BE000003C0240024A136801331360704700BF93
:101BF000D40D0020014B1868704700BFD40D0020A1
:101C0000074AD1684FF6FF030B4043F0BF6300F073
:101C1000070043F4003343EA0023D360704700BF5A
:101C200000ED00E0704700BF2DE9F04FDFF8D0C1B4
:101C3000D1F800E06D4F83B000234FF0010803E0BE
:101C40000133102B00F0858008FA03F202EA0E043B
:101C50009442F5D14D6825F0100ABAF1020F7BD0FD
:101C60004FEA43090322D0F800B002FA09F2D24346
:101C700005F0030602EA0B0B06FA09F60AF1FF3A31
:101C80004BEA0606BAF1010F066040F28B80C66887
:101C900032408E6806FA09F61643EA00C660CFD5D0
:101CA000DCF8442042F48042CCF84420DCF8446064
:101CB00023F0030206F48046019602F1804203F00D
:101CC00003064FEA860B02F59C320F2606FA0BFA42
:101CD000474EDDF80490D2F80890B04229EA0A098C
:101CE00074D006F58066B04272D0424EB04272D0D7
:101CF000414EB04274D0414EB0420CBF4FF0040A86
:101D00004FF0050A0AFA0BF646EA090696603A68A9
:101D1000E64315F4803F14BF224332403A607A68AC
:101D200015F4003F14BF224332407A60BA6815F4BC
:101D3000801F14BF22433240BA60FA68AD0203F13B
:101D4000010354BF06EA02041443102BFC607FF425
:101D50007BAF03B0BDE8F08F4FEAD30900EB8909F0
:101D600003F00706D9F82020B6004FF00F0A0AFA50
:101D700006FB22EA0B0A0A69B2404AEA0202C9F8E3
:101D800020204FEA43090322D0F800A002FA09F20A
:101D9000D24305F0030602EA0A0A06FA09F64AEAFD
:101DA00006060660866802EA060ACE6806FA09F6A2
:101DB0004AEA06068660D0F804A0C5F300162AEAAF
:101DC000040A9E404AEA0606466060E700269BE752
:101DD00008FA0BF698E74FF0020A0AFA0BF693E7B7
:101DE0004FF0030A0AFA0BF68EE700BF003C0140F1
:101DF0000000024000080240000C024000100240B7
:101E000000380240F0B50368DE0783B0044633D5DE
:101E1000A1498A6802F00C02042A00F0EE808A6868
:101E200002F00C02082A00F0E4809C4B9A4D00223C
:101E30001A70FFF7DFFE064605E0FFF7DBFE801BAA
:101E4000C82800F2C5802B689903F6D4934B2279F9
:101E50001A706368002B00F00C81FFF7CBFE8E4DEB
:101E6000064605E0FFF7C6FE801BC82800F2B080DA
:101E70002B689A03F6D523689F072ED5864A91686A
:101E800011F00C0F00F0AB80916801F00C010829F3
:101E900000F0A180E368002B00F0DA80804B7E4DDB
:101EA00001221A60FFF7A6FE064605E0FFF7A2FE34
:101EB000801B642800F28C802B68774A9807F5D540
:101EC0001168F82090FAA0F02369B0FA80F021F0B0
:101ED000F80183400B43136023681A0720D4580786
:101EE00034D4A369CBB16C4DAA6802F00C02082A65
:101EF0007CD0022B6B4B4FF000021A6000F0C780C1
:101F0000FFF778FE2C46054604E0FFF773FE401B02
:101F100064285DD823689B01F7D4002003B0F0BD8E
:101F20006369002B73D0604B5B4D01221A60FFF791
:101F300061FE064604E0FFF75DFE801B642847D87B
:101F40006B6F9B07F7D523685807CAD5524B574D7F
:101F50001A6C42F080521A641B6C03F08053019398
:101F6000019B2B6843F480732B60FFF743FE06460A
:101F700004E0FFF73FFE801B642829D82B68D905B1
:101F8000F7D54B4B444D00221A70FFF733FE41F258
:101F90008836074604E0FFF72DFEC01BB04217D875
:101FA0002B6F9A07F7D4424B227A1A70A368002B42
:101FB00000F0C080FFF71EFE374D074641F288361D
:101FC0002B6F9B078DD4FFF715FEC01BB042F7D9CE
:101FD000032003B0F0BD526856023FF55BAF2E4AB6
:101FE0001268950723D5E268012A20D0012003B0AA
:101FF000F0BD4A6855027FF518AF274A1268900372
:102000007FF53AAF6268002A7FF436AFEEE7264AE2
:10201000214D1360FFF7EEFD064604E0FFF7EAFDF1
:10202000801B6428D4D86B6F9F07F7D48BE71A4DB9
:10203000F820296890FAA0F02269B0FA80F021F027
:10204000F80182400A432A601A077FF548AF67E724
:10205000134A114D1360FFF7CDFD064604E0FFF76C
:10206000C9FD801B6428B3D82B689907F7D423686F
:1020700033E7FFF7BFFD084D064604E0FFF7BAFD62
:10208000801BC828A4D82B689B03F7D4F3E6FFF77E
:10209000B1FD064613E000BF00380240023802409E
:1020A0000000474260004742800E474200700040F7
:1020B00070380240FFF79EFD801B642888D82B688B
:1020C000244A9901F6D447F6C07797FAA7F74FF458
:1020D0004036B7FA87F796FAA6F64FF07060B6FA70
:1020E00086F690FAA0F0A36A656AD4F820C0D4F806
:1020F0001CE0E16AB0FA80F05B0805FA07F4013BE6
:102100004CEA0E052C43B3408140234312480B4355
:102110000121536001601446FFF76CFD054605E0A0
:10212000FFF768FD401B64283FF652AF23689A0111
:10213000F6D5F2E6FFF75EFD064D074641F288361A
:102140002B6F98077FF5CDAEFFF754FDC01BB04253
:10215000F6D93DE700380240600047427C4A1368E8
:1021600003F00F038B422DE9F0410C46054609D2DE
:10217000CBB21370136803F00F038B4258D00120C9
:10218000BDE8F08103689A0706D57248AA6881689D
:1021900021F0F0010A438260DF0727D56B68012B2D
:1021A00079D09A1E012A6B4A126840F28780910703
:1021B000E5D5684EB26822F003021343B360FFF71F
:1021C00019FD6B68012B07467CD0022B00F088803C
:1021D000032B65D041F2883804E0FFF70BFDC01BEC
:1021E000404565D8B36813F00C0FF6D1584BE2B2F6
:1021F0001A701B6803F00F03A342C0D12B685A0763
:1022000006D55448EA68816821F4E0510A438260A7
:102210001B0707D54F4A2969936823F4604343EAB3
:10222000C10393600F20FFF7B9FA0020BDE8F081E9
:1022300003689F0706D54748AA68816821F0F00126
:102240000A438260DE07DAD56B68012B56D09A1EEE
:10225000012A404A12682ED9910790D53D4CA268B8
:1022600022F003021343A360FFF7C4FC6B68012B49
:10227000064648D0022B54D0032B60D041F2883759
:1022800004E0FFF7B7FC801BB84211D8A36813F035
:102290000C0FF6D1B2E72F4A1268960389D46EE785
:1022A00041F28834B368FFF7A5FCC01BA042F9D9FE
:1022B0000320BDE8F0819001D0D460E790013FF5A4
:1022C00078AF5CE741F2883804E0FFF793FCC01B6D
:1022D0004045EDD8B36803F00C03042BF5D185E736
:1022E00041F2883804E0FFF785FCC01B4045DFD889
:1022F000B36803F00C03082BF5D177E7154A126891
:102300009403ABD43BE741F2883704E0FFF772FC5B
:10231000801BB842CCD8A36803F00C03042BF5D182
:102320006CE741F2883704E0FFF764FC801BB84299
:10233000BED8A36803F00C03082BF5D15EE741F289
:102340008835A368FFF756FC801BA842F9D9AFE790
:10235000003C0240003802401C498B6803F00C032B
:10236000042B31D0082B2DD14A6830B44D6802F0CF
:102370003F0447F6C0734A68690293FAA3F347F62D
:10238000C07000EA02004ABF1149124AB1FBF4F2E0
:102390000E49B3FA83F320FA03F058BFB2FBF4F20C
:1023A00002FB00F34FF44032486892FAA2F200F4C4
:1023B0004030B2FA82F2D0400130400030BCB3FB72
:1023C000F0F07047034870470148704700380240FA
:1023D00000127A000024F40010B5FFF7BDFF084B8F
:1023E000F0229B6892FAA2F203F0F003B2FA82F2B2
:1023F000044C0549D340E35CD840086010BD00BFE1
:1024000000380240DC930008B401002008B5FFF753
:10241000E3FF074B4FF4E0529B6892FAA2F203F4F9
:10242000E053B2FA82F20349D340CB5CD84008BDF6
:1024300000380240DC93000808B5FFF7CDFF074BDA
:102440004FF460429B6892FAA2F203F46043B2FA3E
:1024500082F20349D340CB5CD84008BD003802402B
:10246000DC930008704700BF03680122186A8A40A5
:1024700020EA020010B41862196A094C0A43A34208
:102480001A6207D01A685DF8044B42F0010200207E
:102490001A6070475A6C42F400425A64F2E700BF77
:1024A00000000140264A0368904270B434D0B0F175
:1024B000804F20D0A2F57C4290421CD002F5806271
:1024C000904218D002F58062904214D002F59A3200
:1024D000904214D002F58062904210D002F58062E2
:1024E00090420CD08C680A6803600123C462826247
:1024F00070BC436170474A6823F070031343CA6895
:102500008C68096823F44073134303600123C46299
:10251000816270BC436170474A68CC688E680D6800
:10252000096923F07003134323F4407323430360CA
:102530000123C6628562016370BC4361704700BFBE
:1025400000000140C0B190F8393010B503F0FF022F
:10255000044663B12146022351F8040B84F8393054
:10256000FFF7A0FF012384F83930002010BD80F868
:102570003820FFF777FFEDE7012070472DE9F041A4
:102580000468C7682369C569D0F810C082684169CA
:1025900023F4405E4EEA0707064680692761E36838
:1025A0004CEA020223F416430A4323F00C032A43A5
:1025B0001343E360636923F440730343B5F5004FAD
:1025C0006361514B39D09C4200F0818003F58063F8
:1025D0009C427CD0FFF71AFF75684C4F00EB8000DF
:1025E00000EB8000AD00B0FBF5F5FFF70FFFA7FB98
:1025F000053572686D0900EB800000EB80009200E9
:102600002D01B0FBF2F8FFF701FF716800EB8000CD
:1026100000EB80008900B0FBF1F1A7FB0131490913
:10262000642202FB118212013232A7FB0223C3F3A0
:1026300043132B43A360BDE8F0819C4225D003F5F2
:1026400080639C4221D0FFF7E1FE75682F4F00EBBD
:10265000800000EB80006D00B0FBF5F5FFF7D6FEC3
:10266000726800EB800000EB80005200B0FBF2F8D3
:10267000FFF7CCFEA7FB053571686D0900EB800004
:102680002D0100EB80004900C5E7FFF7D5FE756816
:102690001E4F00EB800000EB80006D00B0FBF5F5F5
:1026A000FFF7CAFE726800EB800000EB800052006A
:1026B000B0FBF2F8FFF7C0FEA7FB053571686D09A6
:1026C00000EB80002D0100EB80004900A3E7FFF73D
:1026D000B3FE75680D4F00EB800000EB8000AD008D
:1026E000B0FBF5F5FFF7A8FEA7FB053572686D098D
:1026F00000EB800092002D0100EB8000B0FBF2F8AF
:10270000FFF79AFE81E700BF001001401F85EB51E3
:10271000704700BF50B338B590F83930044603F025
:10272000FF02F3B12268022384F83930D36823F41E
:102730000053D3602046FFF721FF23681A6922F473
:1027400090421A615A6922F02A025A61DA6800211D
:1027500042F400520125DA600846E16384F83950FA
:1027600038BD80F83820FFF7D3FFDBE70120704742
:102770001848836803F00C03042B29D0082B0AD0D7
:10278000154B144A154892681549C2F30312825C2E
:10279000D3400B6070474368416813F4800F43686F
:1027A00018BF104801F03F020CBF0B49B0FBF2F11B
:1027B000C3F3881308BFB1FBF2F101FB03F2054B31
:1027C0005B68C3F3014301335B00B2FBF3F3D8E76B
:1027D000044BD6E7003802400024F400EC930008D4
:1027E000B401002000127A00214B224A196C70B506
:1027F00041F0805119641B6C94B003F08053019335
:10280000019B136823F4404343F4004313601368AF
:1028100003F4404302930123029A089300B1052375
:1028200009934FF4A8710723042202244FF4800671
:10283000082508A813930E940F96109511911292E3
:10284000FFF7E0FA034610B1002014B070BD4FF45A
:10285000805221460F2503A80494059307930395FE
:102860000692FFF77BFCB0FA80F0400914B070BD0F
:102870000038024000700040234B244A196CF0B528
:1028800041F0805119641B6C95B003F080530193A3
:10289000019B136823F4404343F40043136013681F
:1028A00003F4404302934FF0030E1023002404214D
:1028B0000722012702254FF4A87608A80C9310934D
:1028C000DDF808C0CDF820E00B9709940F940E9521
:1028D000119612911392FFF795FA034610B1204614
:1028E00015B0F0BD4FF4805229460F2403A804957B
:1028F0000593079303940692FFF730FCB0FA80F03B
:10290000400915B0F0BD00BF003802400070004023
:1029100008B50120FFF768FF00B108BDFFF764FFAD
:102920000028FAD1FFF7A8FF0028F6D1FEE700BF84
:10293000174A1848D2F8883070B543F47003164C23
:10294000C2F888302368154E154D002143F001036D
:102950002360A160236823F0847323F48033236011
:10296000666023684FF0006623F480232360E160F3
:1029700096600560FFF71CF9FFF7CAFF236A43F072
:1029800008032362236A23F00803236270BD00BF9B
:1029900000ED00E0B40100200038024010300024B7
:1029A0000024F4002DE9F84F44681C4DD0F808A02D
:1029B00090F919E0D0F81CC0C668D0F81090D0F893
:1029C0001480A40103462819024600F1100742F8BA
:1029D000086F2951BEF1FF3F4FF00001C0F804A07D
:1029E000C2F80490C2F80880C7F808C0C161C18469
:1029F000C18510D093F9183001330CBF04230C2388
:102A00007B60FFF787FE08B9BDE8F88F0448BDE892
:102A1000F84F00F059BA08237B60F2E7000E00205F
:102A2000FC930008F0B50E4685B0044608464949B7
:102A3000154600F0B3FA48490746284600F0AEFABA
:102A40000146384600F098FA411C07467CD0434BBB
:102A500098425AD003F58063984241D0A3F5504381
:102A6000984213D13E4B1A6A42F400321A621A6A33
:102A700022F400321A621A6C42F400321A641B6C9F
:102A800003F400330293029A012363603046314914
:102A900000F050FA2846304900F04CFA721C03D07E
:102AA0003046012100F0CAFB6B1C03D028460121EF
:102AB00000F0C4FB00234FF416523946A260E360D5
:102AC00023616361267665762046FFF76BFF6368B6
:102AD0002449254A9B01CB5893422BD005B0F0BD29
:102AE0001F4B5A6A42F020025A625A6A22F02002B0
:102AF0005A625A6C42F020025A645B6C03F0200365
:102B00000393039B05236360C0E7154B5A6A42F0A9
:102B100010025A625A6A22F010025A625A6C42F04B
:102B200010025A645B6C03F0100301930023019AB6
:102B30006360ABE70D4B0E482146242201241C6044
:102B400000F0EDFF05B0F0BD0A480B49C82200F0C7
:102B5000AFF99BE7889600084096000800100140F6
:102B600000380240000E002000440040FC0D002010
:102B700024110020149400083094000810B4044B71
:102B800044680448196040F824205DF8044B7047FD
:102B9000F80D0020D80D00204368054A9B01D2584B
:102BA00013689B06FCD55068C0F30800704700BF4F
:102BB000000E00204368054A9B01D25813681B068B
:102BC000FCD5C1F308015160704700BF000E002022
:102BD000054B186800B17047044A0549116001228D
:102BE0001A60FEF7DBBD00BF3C1000200010002083
:102BF000000C004008B5064B186830B9054A064974
:102C0000116001221A60FEF7C9FD034B586A08BD26
:102C10003C10002000100020000C0040034B1B68FB
:102C20005863DA6842F00202DA6070470010002050
:102C3000034B1A68D36823F00203D360704700BFC8
:102C400000100020024B1B686FF002021A617047EF
:102C50000010002038B50023036043600A782F2A53
:102C6000044601D0204638BD4A78002AFAD0481CD4
:102C700020604D782F2D13D085B1034600E06AB156
:102C80005D1A013323601A782F2AF8D129460133BF
:102C9000236000F041FB6060204638BD2946F8E71C
:102CA00019460346F3E700BF00687047436843B125
:102CB00010B50446184600F04DFB012803D16068AA
:102CC00010BD00207047002010BD00BF406830B12B
:102CD00008B500F03FFBB0FA80F0400908BD70472E
:102CE00043684BB110B50446184600F033FB28B9D1
:102CF000606818B1043810BD00207047002010BD76
:102D00004068003018BF0120704700BF00F05AB87B
:102D1000A0F15C00FFF7FABF00F058B8A0F15C002A
:102D2000FFF7FABF38B504461D4600F023F82946E0
:102D300004F15C0000F088F8054B03F1080103F191
:102D4000200254332160E2652366204638BD00BF6F
:102D5000D094000801EB4101C9004318DA6B9B6A6B
:102D60002AB11BB101442C31184610477047002B83
:102D7000FCD0184738B50446104B0360251D0023CE
:102D80004FF41650A06563602846A360E36023619A
:102D90006361A36123776377236284F8243084F826
:102DA0002530A362E36323646365FFF73BFE284697
:102DB00022460349FFF7E2FE204638BD3895000859
:102DC000552D00080430FFF7E7BE00BF10B50430F2
:102DD0000C46FFF7EFFE204610BD00BF00207047F5
:102DE000F8B58E18B1420F460ED005460C4601E0EC
:102DF000A64207D02B6814F8011B5B6A2846984747
:102E00000130F5D1E01BF8BD0C46FBE7F8B58E1894
:102E1000B1420F460ED005460C4603E004F8010B04
:102E2000A64205D02B6828469B6A9847431CF5D1DB
:102E3000E01BF8BD0C46FBE7002070470020704700
:102E4000002070470020704710B584B0044600F0A1
:102E500083FA0B4B0B4903F1080000223C3384E852
:102E60000900626101A8224602F0BEF9064901A8E4
:102E700000F00CFD6061FEF76FFE204604B010BD4F
:102E800040950008CC9300088495000810B5074BC6
:102E900003F108023C33044680E80C00406900F06E
:102EA0002DFB204600F06CFA204610BD409500082E
:102EB00010B40C4613460146224602485DF8044B06
:102EC00000F002B8889500080FB400B5064B83B037
:102ED00004AA1B6852F8041BD868019200F0FCFF9A
:102EE000012000F0A5FA00BF1802002038B50D46F9
:102EF000044600F0C5F8013511D094F900300133D3
:102F00000ED06368E2681B0420461360012100F0C4
:102F1000D1F820460021BDE8384000F0C7B838BDE0
:102F2000024803493422FFF7C3FFEAE7F89200089A
:102F300010930008431C10B5044619D091F90030D5
:102F4000581C04D10FE011F90C3F5A1C0BD09C42C5
:102F5000F9D12046896800F043F920460021BDE8F8
:102F6000104000F06BB90348BDE81040FFF7ACBF5C
:102F700010BD00BFBC95000888420AD0421C09D091
:102F8000013106D008B50448FFF79EFF4FF0FF302F
:102F900008BD704708467047D0950008421C0FD006
:102FA00008B591F900305A1C04D10AE011F90C3F20
:102FB0005A1C06D09842F9D14868411C01D008BD7E
:102FC00070470348FFF780FF4FF0FF30F7E700BF7F
:102FD000E4950008014800F003B800BF38960008E7
:102FE000036870B5DB68054698476B685B6883B11A
:102FF0002A681C6853689847201A00286A680DDC04
:1030000050681168836853600029F0D04068884791
:10301000EBE72B68BDE870409B6818472B68526847
:103020001B691068BDE87040184700BF38B50546F9
:10303000FFF7E0FD0446FFF7DDFD001BA842FAD3D1
:1030400038BD00BF4FF47A7303FB00F0FFF7EEBF0B
:10305000431C10B5044608D02046002100F0C0F8FB
:1030600004F00F040120A04010BD034803492722AB
:10307000FFF71EFFF0E700BFD0960008E4960008B7
:1030800070B505464B1C0C4629700DD0C1F30310DA
:1030900000F030F806462046FFF7DAFF06F110038D
:1030A00018366860AB60EE6070BD00BF90F900003C
:1030B00000F0C4B838B5054690F90000431C0C4632
:1030C0000BD0012C04D00021BDE8384000F088B8B6
:1030D0002146BDE8384000F083B804480449462240
:1030E000FFF7E6FE95F90000EBE700BFF892000855
:1030F000E496000800B587B0072859D8DFE800F04B
:1031000012202E3C4A5858042D4B2E481A6B42F080
:1031100080021A631B6B03F080030593059B07B0C5
:103120005DF804FB264B28481A6B42F001021A6333
:103130001B6B03F001030093009B07B05DF804FBD9
:103140001F4B22481A6B42F002021A631B6B03F0FA
:1031500002030193019B07B05DF804FB184B1C4868
:103160001A6B42F004021A631B6B03F00403029310
:10317000029B07B05DF804FB114B16481A6B42F036
:1031800008021A631B6B03F008030393039B07B049
:103190005DF804FB0A4B10481A6B42F010021A63E8
:1031A0001B6B03F010030493049B07B05DF804FB52
:1031B0000A48FFF789FE002007B05DF804FB00BF56
:1031C00000380240001C024000000240000402409F
:1031D00000080240000C02400010024078970008EE
:1031E00030B5431C87B005460C461BD0C5F3031011
:1031F000FFF780FF05F00F0504F00F010C4A0123D3
:10320000AB40019352F821500295C4F302120323FC
:10321000C4F3C31401A9039205940493FEF704FDBB
:1032200007B030BD034804498122FFF741FEDDE7C6
:1032300044970008D09600089C97000838B5431CB6
:1032400004460D4614D0C4F30310FFF753FF04F0F7
:103250000F04C26864000323A34022EA0303C3608F
:10326000022DC3688CBF0025A5401D43C56038BD35
:1032700002480349A622FFF71BFEE4E7D0960008A8
:103280009C9700088368094A026053B1084B1A688A
:10329000824201D106E01A4653688342FBD143685B
:1032A0005360704742681A60704700BF0898000872
:1032B0004810002083680C4A10B50446026053B1E0
:1032C0000A4B1A68904201D10AE01A4653689C42A0
:1032D000FBD163685360204600F064F8204610BDBF
:1032E00042681A60F7E700BF0898000848100020FD
:1032F00010B40023064C027381600460436019B16E
:10330000044B1A68426018605DF8044B704700BFB8
:1033100008980008481000200D4B70B51C68064640
:103320000D4614B912E0646884B1A36831462A4698
:103330001846002BF7D001F0FCFF0028F3D1A0685D
:1033400001F0EFFFA842EED1204670BD002070BD15
:1033500048100020007B704710B5074B0446002240
:1033600040F8043BFFF7C4FF044B03F10802343379
:1033700084E80C00204610BDA893000810980008AF
:1033800010B5074B044603F108023433226040F8BD
:10339000043FFFF777FF2046FEF784FA204610BD72
:1033A0001098000800F0A4BB10B5002814BF044614
:1033B0000124204600F094FB30B900F00FF808B962
:1033C00000F014F88047F4E710BDFFF7EBBF0346A9
:1033D0000846194600F018B8FFF7E6BF024B186818
:1033E000BFF35F8F704700BF4C10002008B5062068
:1033F00001F0DEFE0120FEF79DFB014600200246A3
:10340000034603F007B8000038B5054604480C46EB
:10341000134620B102202946224602F0FBFF38BDA8
:1034200015640008014B1868704700BF180200209F
:1034300008B5074B044613B1002103F047F8054BCC
:103440001868836A03B198472046FEF773FB00BFF4
:10345000CD640008B098000870B505460C4609B95F
:10346000002070BD18B183690BB900F04FF9204BF3
:103470009C4201D16C6808E01E4B9C4201D1AC68B3
:1034800003E01D4B9C4208BFEC68B4F90C30002BE4
:10349000E6D02846214600F039F8236B064633B1C2
:1034A0002846216A98470028B8BF4FF0FF36A38905
:1034B0001B0603D52846216900F044FB616B41B12E
:1034C00004F14403994202D0284600F03BFB00235C
:1034D0006363A16C21B1284600F034FB0023A36490
:1034E00000F07EF90023A38100F07BF9304670BD27
:1034F0004C9800086C9800088C980008024B014614
:103500001868FFF7A9BF00BF180200208A892DE9BB
:10351000F041054610070C4657D44B68002B02DCDF
:103520000B6C002B18DDE66AB6B102F48052002362
:1035300092B22F682B600AB1626D10E0216A2846B2
:103540000123B047411C024609D12B683BB11D2B1A
:1035500001D0162B47D12F600020BDE8F081A38950
:103560005B0705D56368D21A636B0BB1236CD21A63
:10357000E66A216A00232846B047461CA38905D184
:103580002A681AB11D2A01D0162A19D100226260B8
:10359000D9042269226004D5421C01D12B6803B9E9
:1035A0006065616B2F600029D6D004F14403994215
:1035B00002D0284600F0C6FA00206063BDE8F08122
:1035C00043F04003A381BDE8F0810F69002FC3D011
:1035D00093070E6808BF4B690F6018BF0023C7EB45
:1035E00006088B6012E0A38943F04003A3814FF0EB
:1035F000FF30BDE8F0812846216AA66A3A46434674
:10360000B0470028EFDD0744C0EB0808B8F1000F11
:10361000F1DCA1E738B50B6905460C46DBB118B102
:1036200083690BB900F072F80C4B9C4201D16C68B5
:1036300008E00B4B9C4201D1AC6803E0094B9C4273
:1036400008BFEC68B4F90C302BB128462146BDE820
:103650003840FFF75BBF002038BD00BF4C98000822
:103660006C9800088C980008014620B9044B054965
:10367000186800F0A3B9044B1868FFF7CBBF00BF70
:10368000B09800081536000818020020014900F023
:1036900095B900BF15360008002310B50446036035
:1036A0004360836081814366C281036143618361BA
:1036B00019465C30082200F03DFA054B6362054B69
:1036C000A362054BE362054B2462236310BD00BF78
:1036D00085520008AB520008E35200080753000867
:1036E00070B568234D1E5D430E4605F1740100F070
:1036F0006DFA044640B1002180E842000C30A06021
:1037000005F1680200F016FA204670BD836910B515
:10371000044633BB8364C3640365124B124A1B68BF
:103720008262984204BF0123836100F01FF8606049
:10373000204600F01BF8A060204600F017F8042196
:10374000E06000226068FFF7A7FFA068092101225E
:10375000FFF7A2FFE06812210222FFF79DFF01237D
:10376000A36110BDB09800088D360008F8B51B4B5A
:103770001E68B369074613B93046FFF7C7FF4836DE
:10378000B4687368013B04D4B4F90C5075B1683463
:10379000F8E733682BB938460421FFF7A1FF306002
:1037A00008B13668ECE70C233B60F8BD4FF6FF73B9
:1037B000E3810123A38165662560A56065602561BD
:1037C0006561A56104F15C002946082200F0B2F9A8
:1037D0006563A563A564E5642046F8BDB09800085C
:1037E0007047704738B5074B074CE41AA4101D46C4
:1037F00024B1013C55F824309847F9E7BDE838403A
:1038000005F004BD6002002064020020F7B50F46F9
:10381000114601AA054603F027FD064608B9002017
:1038200029E02846FFF7A2FF04460028F7D02846E3
:103830003946019A4FF4DB7301F000FB002806DAE9
:103840000025FFF7CDFFA581FFF7CBFFE7E70B4B87
:1038500063620B4BA3620B4BE3620B4B2363F305D9
:10386000E081A681246205D5284621460022022354
:1038700000F016F8204603B0F0BD00BF85520008E6
:10388000AB520008E3520008075300080A460349F8
:10389000034608681946FFF7B9BF00BF18020020A9
:1038A00000F000B82DE9F8430C4690461E46054648
:1038B00018B183690BB9FFF729FF3D4B9C4201D139
:1038C0006C6808E03B4B9C4201D1AC6803E03A4B8A
:1038D0009C4208BFEC68A38903F48473B3F5847F2A
:1038E00003D128462146FFF795FEE76A0FB91D234D
:1038F0002BE0012E04D0022E2BD056B3162324E049
:1039000028462146FFF786FEA28902F4805292B231
:103910000AB1606D05E0216A28463346B847411C6C
:1039200014D0A3895A0706D56368C01A636B4BB1DC
:10393000236CC01A06E01B0704D5236813B1226963
:103940009B1A18448044002603E02B604FF0FF3997
:103950002BE023691BB92846214600F073F828465E
:103960002146FFF757FE81460028EFD12846216AFD
:1039700042463346B8470130E8D0616B41B104F1AB
:103980004403994202D0284600F0DCF80023636328
:1039900023692360A389002123F402636160A3816A
:1039A00004F15C00082200F0C5F84846BDE8F88341
:1039B0004C9800086C9800088C9800082DE9F84392
:1039C0008046894600F14804002694B1A5686768DE
:1039D000013F0CD4AB89012B07D9B5F90E30013367
:1039E00003D040462946C84706436835F0E72468B7
:1039F000EBE73046BDE8F88370B50E4B0E4CE41A89
:103A0000A41000251E46A54204D056F8253098473C
:103A10000135F8E705F0F4FB084C094BE41AA41053
:103A200000251E46A54204D056F82530984701359A
:103A3000F8E770BD58020020580200206002002004
:103A400058020020F0B58B899D0791B006460C46C0
:103A500026D4B1F90E10002909DAA38913F0800FDA
:103A60004FF0000514BF40274FF480670DE001AA16
:103A700003F032FC0028F0DB029D05F47045A5F54B
:103A800000514D424D414FF480673046394600F0B9
:103A90009DF860B9A3899A051DD443F00203A38160
:103AA00004F14703236023610123636113E00B4B9F
:103AB000B362A389206043F08003A3812061676122
:103AC0004DB13046B4F90E1003F024FF18B1A389AC
:103AD00043F00103A38111B0F0BD00BF8D36000893
:103AE000024B0146186800F071B800BF18020020B0
:103AF000024B0146186800F025B800BF18020020EC
:103B000010B5C9B202449042034606D01C788C42DC
:103B100000F10100F7D1184610BD002010BD10B50E
:103B2000431E0A44914204D011F8014B03F8014F9F
:103B3000F8E710BD02440346934202D003F8011B8C
:103B4000FAE7704730B500293DD051F8042C0B1F1F
:103B50001D49002AB8BF9B180A680C4612B95A6062
:103B60000B6030BD93420DD219685818904201BFC6
:103B70005A5852181A6042685A60236030BD994200
:103B800003D80A4651680029F9D1146815199D42D5
:103B90000AD11B682344D0188842136013D10868E7
:103BA000034413604B680DE002D90C23036030BD61
:103BB0001C681819884204BF08684968596004BF26
:103BC00000191860536030BD5410002070B5CC1C33
:103BD00024F0030408340C2C38BF0C24002C0646B7
:103BE00003DA0C233360002070BD8C42F9D3204AE5
:103BF000136810461946A1B10A68121B0ED40B2A8D
:103C000003D90A608B188C501FE08B420DBF5A6895
:103C10004A685A60026018BF0B4616E00B464968B6
:103C2000E9E7144D2B681BB9304601F0C3F9286051
:103C30003046214601F0BEF9421C0346D1D0C51CD6
:103C400025F0030585420AD11C6003F10B001A1D03
:103C500020F00700821A0AD05142995070BD3046B8
:103C6000E91A01F0A7F90130BBD02B46ECE770BD93
:103C700054100020501000209368013B002B10B519
:103C8000936009DA9469A34202DBCBB20A2B03D119
:103C9000BDE8104002F0ECBA1368581C10601970AF
:103CA000C8B210BDF8B506460F461446D518AC424A
:103CB00008D0304614F8011B3A46FFF7DDFF431CDD
:103CC000F5D100E00020F8BD2DE9F0439DB00D4690
:103CD00090460393064618B183690BB9FFF716FDAA
:103CE000754B9D4201D1756808E0744B9D4201D12E
:103CF000B56803E0724B9D4208BFF568AB891C07AD
:103D00000AD52B6943B10023099320238DF829306C
:103D100030238DF82A3041E03046294602F00EFB70
:103D20000028F0D04FF0FF30C2E0039A111D126856
:103D30000391002ABBBF524243F00203079207924D
:103D4000B8BF0493013423782E2B7BD0DFF8808119
:103D5000217840460322FFF7D3FE38B1049AC8EB1E
:103D600000004023834013430493013421785548D5
:103D70008DF82810062204F10108FFF7C1FE002883
:103D800000F08580504B002B78D1039B073323F044
:103D9000070308330393099B3B44099343461C469E
:103DA00013F8012B1AB9B4EB08090ED002E0252A4A
:103DB000F5D1F8E73046294642464B46FFF772FFF9
:103DC000013070D0099B4B4409932378002B6AD0B3
:103DD00000234FF0FF3204930793059206938DF86A
:103DE00053301A9304F101084446DFF8E890217833
:103DF00048460522FFF784FE08F10108049B30B114
:103E0000C9EB00000122824013430493ECE7D8067B
:103E100044BF20228DF85320190744BF2B228DF870
:103E2000532022782A2A80D0079923461C46013342
:103E30002278303A092A03D80A2000FB0121F5E74D
:103E4000079180E763782A2B0AD1039B1A1D1B6810
:103E50000392002BB8BF4FF0FF330234059375E790
:103E6000611C00220C4601312378303B092B03D81A
:103E70000A2000FB0232F5E7059267E703AB0093E7
:103E8000304604A92A46114B00F0C4F807E003AB02
:103E90000093304604A92A460C4B00F077FB421CE5
:103EA00007467FF478AFAB895B063FF53BAF0998D7
:103EB0001DB0BDE8F08300BF4C9800086C98000866
:103EC0008C980008BE98000815400008A53C000822
:103ED000BA980008B498000830B51346044A05465D
:103EE0000C46106829462246BDE83040FFF7ECBE7C
:103EF000180200202DE9F04788B0002B149F12997A
:103F0000109EDDF84CA01D46B8BF05F1004327F018
:103F10002007B6BF1D4600232D231446B8BF144604
:103F2000462F0B7003D0452F03D1013601E0032348
:103F300000E002238DE8480406AB039307AB04932B
:103F400022462B4602F0CCFB472F804602D1119B24
:103F5000DB0726D5462F08EB060911D198F800306B
:103F6000302B0AD1204629460022002305F06EF8A6
:103F700018B9C6F10106CAF80060DAF800309944B1
:103F8000204629460022002305F060F808B1CDF84C
:103F90001C90079B4B4504D25A1C079230221A7082
:103FA000F7E7079B159AC8EB03034046136008B078
:103FB000BDE8F08773B503460029B8BF494203F84E
:103FC000022BB4BF2D222B220929427019DD0DF1DD
:103FD000070426460A2291FBF2F502FB1511303147
:103FE000092D04F8011D2946F4DC3031651E04F862
:103FF000011CB5421A460AD215F8012B03F8012B11
:10400000F7E730241A46214402F8024B5970101A7F
:1040100002B070BD2DE9F04F91B08B4615461E469B
:104020001A9F044603F086FCD0F800A0504601F029
:1040300078F900230E933B680990073323F00703B8
:1040400003F108029BF818803A60D3E90023CBE91A
:104050001223DBE9120100F083FF0128DBE91201E2
:1040600019D10022002304F0FBFF10B12D238BF89F
:104070004330A04BA04FB8F1470F88BF1F46032322
:10408000CBF81030DBF8003023F00403CBF800301D
:104090004FF00009A1E000F063FFDBF8003048B901
:1040A000964A974FB8F1470F88BF17460322CBF8BF
:1040B0001020E9E7DBF804209BED127B571C8DED07
:1040C0000A7B01D1062209E0B8F1670F02D0B8F1EE
:1040D000470F05D1002A40F0C7810122CBF8042008
:1040E000DBF80420CDF8108043F480638DE80C00E9
:1040F000CBF800300DF1330302930DAB03930EABFD
:104100000593002306932046DDE90A23FFF7F2FE1C
:1041100008F0DF03472B07460AD10D9BD81C03DBB1
:10412000DBF80420934237DDA8F102085FFA88F833
:10413000B8F1650F0D9915D8013942460BF15000C1
:104140000D91FFF737FF0E9A8318012A8146CBF8AD
:10415000103003DCDBF80020D10738D50133CBF871
:10416000103034E0B8F1660F18D10029DBF80430C4
:1041700009DDCBF810101BB9DBF80020D20721D5E0
:1041800001330B441CE01BB9DBF80020D00701D53C
:10419000023315E0012313E04FF067080D9B0E9AE0
:1041A000934207DBDBF80020CBF81030D10709D5AC
:1041B000013305E0002BD4BFC3F1020301231344F4
:1041C000CBF810300D9BCBF858304FF000099DF81C
:1041D000333013B12D238BF84330009620465946D7
:1041E0000FAA2B4600F05CF9013002D14FF0FF30EE
:1041F00052E1DBF800305A0505D4204629463A46FC
:10420000DBF8103008E1B8F1650F40F2D080DBE94F
:1042100012010022002304F019FF50B32046294662
:10422000384A0123B0470130E0D00E9B0D9A9A42E4
:1042300009DBDBF80030D80705D4DBF800309F0736
:1042400000F1108107E1204629465246099BB047FC
:104250000130CBD000270E9B013B9F42EDDA204678
:1042600029460BF11A020123B0470130BED00137B5
:10427000F1E70D9B002B29DC20462946214A01232A
:10428000B0470130B2D00D9B2BB90E9B1BB9DBF8A8
:104290000030D907D1D5204629465246099BB04760
:1042A0000130A3D04FF000080D9B5B42984520469B
:1042B000294608DA0BF11A020123B047013095D0E4
:1042C00008F10108F0E73A460E9BA5E0DBF858201C
:1042D0000E9B9A42A8BF1A46002A914602DC4FF074
:1042E00000081CE0204629463A464B46B0470130BC
:1042F000F5D17BE7C9980008C5980008D198000857
:10430000CD9800081E990008204629460BF11A0294
:104310000123B04701303FF469AF08F10108DBF831
:104320005830B9F1000FACBFC9EB03021A469045F3
:10433000EADB07EB03080D9A0E9B9A4210DBDBF8D1
:104340000030DA070CD40E9A1744C8EB07030D9F10
:10435000D21B9342A8BF1346002B1F4608DC0EE079
:10436000204629465246099BB0470130EBD13DE734
:10437000204629464246B04701303FF437AF4FF060
:1043800000080AE0204629460BF11A020123B04733
:1043900001303FF42BAF08F101080D9A0E9B002F5E
:1043A000A3EB0203A8BFDB1B9845EBDB45E70E9AA6
:1043B000012A01DCDB0736D5204629463A4601238F
:1043C000B04701303FF412AF204629465246099BC0
:1043D000B04701303FF40AAFDBE9120100220023AD
:1043E00004F034FEE8B90E9B204629467A1C013BB6
:1043F0001DE0204629460BF11A020123B047013087
:104400003FF4F4AE01370E9B013B9F42F1DB2046A7
:1044100029460BF150024B46B04701307FF40DAFF7
:10442000E4E60027EFE7204629463A460123B04755
:104430000130ECD1DAE6204629460BF119020123BE
:10444000B04701303FF4D2AE0137DBF80C300F9AA1
:104450009B1A9F42EFDBDBF80C000F9B9842B8BF22
:10446000184619E00027F0E743F480638DE80C005C
:10447000CBF800300DF1330302930DAB03930EAB79
:10448000059300230693CDF810802046DDE90A232A
:10449000FFF730FD074640E611B0BDE8F08F00BFE2
:1044A0002DE9F84391461F468A680B69DDF82080A4
:1044B0009342B8BF1346C9F8003091F8432006462E
:1044C0000C4612B10133C9F800302368990642BF87
:1044D000D9F800300233C9F80030256815F0060518
:1044E0001CD094F843302268003318BF0123920691
:1044F0001FD5E1185A1C302081F84300224494F85B
:10450000451082F84310023313E03046394604F177
:1045100019020123C047013007D00135E368D9F8FB
:1045200000209B1A9D42F0DBDBE74FF0FF30BDE837
:10453000F8833046394604F14302C0470130F4D0D5
:104540002268D9F80050E36802F00602042A08BF86
:104550005D1B2269A3680CBF25EAE575002593421F
:10456000C4BF9B1AED184FF00009A9450ADA30467E
:10457000394604F11A020123C0470130D5D009F1B0
:104580000109F2E70020BDE8F88300002DE9FF41B2
:104590000C461746227E6E2A984606460A9B01F173
:1045A000430100F0AF8012D8632A23D00AD8002A32
:1045B00000F0BC80582A40F0CB8084F84520DFF81A
:1045C00004E257E0642A1ED0692A1CD0C0E0732A96
:1045D00000F0B08009D86F2A2ED0702A40F0B88041
:1045E000226842F0200222603FE0752A24D0782A17
:1045F0003BD0ADE01A68111D1960136884F8423091
:1046000004F14205A8E020681A6810F0800F02D07B
:10461000101D186008E010F0400F02F1040018604F
:1046200002D0B2F9003000E01368002B3EDA2D22F0
:104630005B4284F8432039E020681A6810F0800F4C
:1046400002D0101D186007E010F0400F02F10400C6
:10465000186001D0138800E01368227EDFF864E15F
:104660006F2A0CBF08220A221CE07822DFF858E1EA
:1046700084F845202268186812F0800F00F10405C4
:104680001D6003D1550601D5038800E00368D007FB
:1046900044BF42F0200222601BB9226822F02002AF
:1046A00022601022002084F8430002E0DFF814E1C9
:1046B0000A226568A560002DA2BF206820F00400D2
:1046C000206003B965B10D46B3FBF2F002FB103375
:1046D0001EF8033005F8013D03460028F4D100E040
:1046E0000D46082A0BD12368DA0708D523696268CA
:1046F0009A42DEBF302305F8013C05F1FF35491B26
:1047000021612EE025681A68606915F0800F03D0DA
:10471000151D1D60136808E015F0400F02F1040537
:104720001D60136801D0188000E018600023236129
:104730000D4616E01A68111D196015686268284652
:104740000021FFF7DDF908B1401B6060636804E0F9
:1047500004F1420584F8422001232361002384F8F8
:104760004330CDF800803046214603AA3B46FFF790
:1047700097FE013002D14FF0FF301FE0304639463E
:104780002A462369C0470130F5D023689B0705D42A
:10479000E068039B9842B8BF18460FE00025E36825
:1047A000039A9B1A9D42F3DA3046394604F1190206
:1047B0000123C0470130DED00135F0E704B0BDE889
:1047C000F08100BFD5980008E69800082DE9F04F69
:1047D00099468B6815465A1EB2F5AE7F81BF6FF4BD
:1047E000AE7203EB020C40F25D138B600B680F4658
:1047F00043F4F06387B047F81C3B4FF0000B0646CC
:104800000C4698BF4FF0000CB8465A46CDF80CB095
:10481000CDF808B0DA46CDF804B0A168002900F060
:10482000EC802B681B78492B70D016D8392B0DD80B
:10483000312B40D22D2B46D002D82B2B43D0DCE09D
:104840002E2B00F09280302B23D0D6E0452B00F0A9
:104850009580462B77D0412B0CE0652B00F08E80A5
:104860000AD8542B75D002D84E2B34D0C5E0592B22
:1048700075D0612B46D0C0E06E2B2CD004D8662BAF
:1048800061D0692B42D0B8E0742B62D0792B66D00E
:10489000B3E0206810F4807F0DD020F0800020600D
:1048A0000AF1010ABCF1000F00F08A8001310CF11D
:1048B000FF3CA16084E012EB0B0F40F09E8021686A
:1048C00021F4C07105E02168080640F1968021F0CE
:1048D0008001216070E06AB9BAF1000F0CD1216843
:1048E00001F4E060B0F5E06F06D121F4F0612160E1
:1048F000012261E0022A5ED0BBF1010F1ED0BBF1A4
:10490000040F1AE0012A78D1022255E0BBF1000F12
:104910000ED1BAF1000F73D1216801F4E060B0F557
:10492000E06F71D121F4F06121604FF0010B43E0A1
:10493000BBF1030F02D0BBF1050F5ED10BF1010BF0
:104940005FFA8BFB38E0BBF1020F56D14FF0030B3F
:1049500032E0BBF1060F50D14FF0070B2CE0BBF15A
:10496000070F4AD14FF0080B26E02168880544D58F
:1049700021F420712160CDF804A01DE0216801F42C
:10498000A060B0F5806F04D0480536D5BAF1000FAD
:104990003AD088055CBF0198CDF80C8021F4F06115
:1049A00058BFC0EB0A0041F4C07158BF02902160AB
:1049B0004FF0000A00E0032288F8003008F10108F7
:1049C000A368013BA3602369013323616B68013B4A
:1049D000002B6B6003DD2B6801332B601DE7D4F8DF
:1049E0008031059230462946CDF810C09847DDF851
:1049F00010C0059A00283FF410AFBAF1000F03D0A1
:104A0000236823F480732360013A012A0ED8B84545
:104A10000AD9D4F87C3118F8011D30462A46984747
:104A20002369013B2361F2E70125AEE00BF1FF337F
:104A3000062B22D8BBF1020F12D9ABF1030B5FFAA0
:104A40008BFBCBEB080BD84517D0D4F87C3118F88A
:104A5000011D30462A4698472369013B2361F2E74E
:104A6000B845E1D9D4F87C3118F8011D30462A4602
:104A700098472369013B2361F2E72368DA052CD5C7
:104A80005B050CD5B845CFD9D4F87C3118F8011D99
:104A900030462A4698472369013B2361F2E718F81C
:104AA000011C2369652903F1FF3308F1FF3B2361F2
:104AB0000DD045290BD0D4F87C3130462A46984792
:104AC000236918F8021C013BA8F1020B2361D4F8FA
:104AD0007C3130462A469847D846256815F010059F
:104AE00052D188F80050236803F4C063B3F5806F97
:104AF00005D1019BC3EB0A035A426BB916E0029B36
:104B0000A3B1039B2A46591C30460A2301F072FACE
:104B1000029BDDF80C80C21A04F26F13984528BF7F
:104B200004F5B77840461B4900F05EFB3046394635
:104B3000002200F04DFC2268D9F8003012F0020F7C
:104B400006460F4603D01A1DC9F8002006E012F0F1
:104B5000040F03F10402C9F8002003D01B68C3E965
:104B600000670DE0D3F8008000F0FAF910B900F00A
:104B7000F3FA03E03046394604F0E2FAC8F80000E0
:104B8000E3680133E36000E00025284607B0BDE894
:104B9000F08F00BFF79800082DE9F04115468A68AC
:104BA00080460C4632B98A69002A0CBF01224FF0B8
:104BB000FF328A602268D1065FBF1A68111D196032
:104BC00017680026A06900BB2368DA065EBF2B6861
:104BD0001B783B702A686B6802F101022A60A268A8
:104BE00003F1FF3302F1FF326B6006F1010658BF9B
:104BF0000137A260EAB1002BE4DCD4F880314046F2
:104C0000294698470028DDD013E0012807D12B68FA
:104C100062691B78D35C002BD6D1C6B109E00228AB
:104C200007D12B680B4A1B78126813445B781B076B
:104C3000CAD5236813F0100305D1E2680132E2609F
:104C4000A26902B13B7023691E4426610020BDE8C1
:104C5000F08100BF1C0200202DE9F04F9A46734BF3
:104C60000C468346164693E8070087B003AB83E8FB
:104C700007006F4BA1696F4A032918BF1A46A36842
:104C800000925A1EB2F5AE7F81BF6FF4AE7503EB92
:104C9000050840F25D13A360236804F11C0943F486
:104CA0005063236098BF4FF000084F4600233268DE
:104CB000019303A951F8230011780222FEF720FF87
:104CC000019B002836D0012B0BD162682AB908223B
:104CD0006260226842F400722260226822F4A062BC
:104CE0000BE0022B0AD1226802F4C061B1F5007F0B
:104CF00020D11021616042F480722260A268511EAE
:104D0000A160BAB13268511C316012783A70726891
:104D1000013A002A07F1010572600ADCD4F880210B
:104D20000193584631469047002840D12F46019BB9
:104D300000E02F460133032BB9D163680BB90A2376
:104D4000636063683C496069C91A00F043F93D46F5
:104D50000027A36863B3316860690A78805C38B360
:104D6000302A22680AD1100508D50137B8F1000FA2
:104D70000AD0013308F1FF38A36005E022F4106285
:104D800022600B782B7001357368013B002B736038
:104D900003DD33680133336005E0D4F880315846D1
:104DA0003146984720B9A368013BA360D1E70027AB
:104DB0002368D9050DD54D4509D915F8011CD4F83E
:104DC0007C3158463246984705F1FF3845464D45F7
:104DD00027D0226812F010021BD12A706368009E4F
:104DE00058464946B0472268DAF8003012F0200FE2
:104DF00007D1D20705D51A1DCAF800201B681880F4
:104E000004E01A1DCAF800201B681860E36801332B
:104E1000E360C9EB05053D4427693D442561002059
:104E200000E0012007B0BDE8F08F00BFFC9800084B
:104E300001610008F55F00081899000838B5074CB3
:104E4000054600202060084611461A46FCF740FD42
:104E5000431C02D1236803B12B6038BD48110020E8
:104E600070B50E46054618B183690BB9FEF74EFCC6
:104E7000AB69AC6813B92846FEF748FC314B9C423D
:104E800001D16C6808E0304B9C4201D1AC6803E072
:104E90002E4B9C4208BFEC68A389190701D52369F2
:104EA00083B92846214601F049FA58B14FF0FF3046
:104EB00070BD002B0EDB236816F8012C1A702368D6
:104EC00001332360A36816F8012B013BA360002A7D
:104ED000EFD116E0A269934209DB236816F8012C92
:104EE0001A70236819780A29EAD1284602E016F8D0
:104EF000011C2846224601F0BBF9421C5042504199
:104F0000D3E7002B15DAA269934208DB23680A2253
:104F10001A702368197891420FD1284601E028467B
:104F20000A21224601F0A4F9431C5842584130B1ED
:104F3000BCE723680A221A702368013323600A2021
:104F400070BD00BF4C9800086C9800088C98000851
:104F5000024B01461868FFF783BF00BF180200200C
:104F60000A4631F0004110B503461BD00F48A2F5A8
:104F70008014844210D902F1FF420C4802F5E0028D
:104F8000824209D9B1F5801F08D3094A914207D15D
:104F9000B3FA83F0400910BD042010BD032010BDFA
:104FA000002010BD0028E6D1022010BDFFFFDF7FEA
:104FB0000000F07F38B5064C002305460846236004
:104FC000FCF7A4FD431C02D1236803B12B6038BD5C
:104FD00048110020F0B50A785E2A13BF4B1C8B1CC9
:104FE0004A78002108BF0121441E00F1FF0504F8A2
:104FF000011FAC42FBD10AB9581EF0BDC1F101043A
:10500000E7B2875419782D2903F1010605D05D29EF
:105010000ED079B10A463346F2E75D785D2DF9D0BE
:105020009542F7DB02330132AA428754FBDBE9E702
:105030003046F0BD1846F0BD00290CBF0222002208
:105040004FF4806300F000B82DE9F0411D463D4B60
:105050001E6804460F46904626B1B36913B9304620
:10506000FEF754FB384B9C4201D1746808E0374B83
:105070009C4201D1B46803E0354B9C4208BFF46800
:10508000B8F1020F5AD8002D58DB30462146FEF702
:10509000C1FA00236360A361A3891B0603D53046D0
:1050A0002169FEF74FFDA389B8F1020F23F08303B6
:1050B000A38112D037BB002D08BF4FF4806528466E
:1050C000FEF70EFD0746C8B94FF48060FEF708FDF5
:1050D000074688B94FF0FF3000E00020A38943F075
:1050E0000203A3810023A36004F14703236023612B
:1050F00001236361BDE8F0814FF48065A38943F02B
:105100008003A381B8F1010F01BFA38943F001031C
:10511000A3816B4208BFA3610E4BB362A3892760D2
:1051200003F0080080B22761656148B113F0030FF6
:1051300018BF0025A5600020BDE8F0814FF0FF30CA
:10514000BDE8F081180200204C9800086C98000817
:105150008C9800088D360008004870470000C07F1A
:105160001F2938B504460D4604D9162303604FF0B5
:10517000FF3038BD426C12B152F821304BB9204695
:1051800000F030F82A4601462046BDE8384000F0DD
:1051900017B8012B0AD0591C03D116230360012034
:1051A00038BD002442F8254028469847002038BDE5
:1051B000024B01461868FFF7D3BF00BF180200205A
:1051C00038B5074C0023054608461146236004F015
:1051D0000FF8431C02D1236803B12B6038BD00BF18
:1051E0004811002003F0FCBF0EB400B59CB04FF492
:1051F0000271ADF814106FF00041049107914FF661
:10520000FF711DABADF81610084953F8042B02903E
:1052100006900868019302A903F042F8029B00225D
:105220001A701CB05DF804EB03B070471802002040
:105230000EB430B59CB01FAC4FF4017254F8045B4F
:10524000ADF814200290069000F06BF80B4B0B9316
:1052500000230F9314934FF6FF73ADF81630084BED
:105260000390079002A9186801942A46234603F088
:1052700063F91CB0BDE8304003B07047A752000886
:105280001802002010B50C46B1F90E1003F0A2FA76
:105290000028ABBF636DA3891B1823F48053ACBFF8
:1052A0006365A38110BD002070472DE9F0411D46C4
:1052B0008B89DB0507460C46164605D5B1F90E105D
:1052C0000022022302F03AFBA389B4F90E1023F462
:1052D0008053A381384632462B46BDE8F04101F0A9
:1052E0001BB810B50C46B1F90E1002F027FB431C99
:1052F000A38915BF606523F4805343F48053A381D1
:1053000018BFA38110BDB1F90E1001F049B910F812
:10531000012B11F8013B012A28BF9A42F7D0D01A7D
:105320007047034613F8012B002AFBD1181A0138E5
:10533000704770B5AAB1451E01396B7811F8014F5D
:10534000A34205F1010606D16FF00104641B144469
:10535000E04202D11C46181B70BD3546002BECD133
:10536000F8E7104670BD30B5036811F8014B013302
:105370004CB11A78A2F14105192D98BF2032A242F2
:10538000F3D0002030BD0360012030BD2DE9F04195
:105390000F46904602F0CCFD04460D46B8F1000FD2
:1053A00011D0C7F30A53C3F16B03002B0BDD1B05B0
:1053B00003F17F55002405F5401522462B4603F0E6
:1053C000DDFBBDE8F08120462946BDE8F081000004
:1053D0002DE9F04F9FB0002383468A4616921A9318
:1053E0004FF000084FF000091991199B1A780D2A07
:1053F00005D8092A13D2002A00F0BE8112E02B2A18
:1054000006D02D2A02D0202A0CD108E0012200E08B
:10541000002209925A1C19925B782BB9ACE1013336
:105420001993E2E700230993199C2378302B5CD170
:105430006378582B01D0782B4CD11AAB0093099B81
:105440000193584619A9B14A1BAB01F0A2FF10F015
:105450000706054600F09B85062E05D10134002382
:105460001994099300F093BD1A9A3AB11CA83521FA
:1054700002F04CFE58461A9902F0C2FA1B9A062E08
:1054800021D8DFE806F0040D08171C0D04004FF0CA
:105490000009C84617E0DDF87080DDF8749012E06E
:1054A0001D9BDDF8708002F2334223F4801343EA3F
:1054B000025908E0DFF858924FF0000803E06FF05F
:1054C00000494FF0FF38290740F1618549F0004954
:1054D00000F05DBD199B5A1C19925B78302BF9D0F6
:1054E000002B00F05485012300E0002300260493E4
:1054F000199B059303963546199C2778A7F130032D
:10550000DAB2092A10D8082DD8BF03994FF00A0241
:10551000D8BF02FB013304F10104D4BF039302FBA3
:10552000063601351994E7E7584602F003FA016898
:105530000291584602F0FEF90068FFF7F2FE029968
:1055400002462046FFF7F5FE28B100203B462C46D8
:10555000029007465DE00290584602F0EBF90068C1
:10556000FFF7DFFE199B02991A1819921B5C002D98
:1055700047D12846302B05D1199B5A1C199201306E
:105580005B78F7E7A3F13102082A48D8199A02900C
:10559000002005920446303B00F101012BD0029A15
:1055A0000A44029207192146B94213D0013101F190
:1055B000FF3EBEF1080F06DC039A4FF00A0E0EFB09
:1055C00002F20392F0E71029DCBF4FF00A0E0EFB47
:1055D00006F6E9E72044082800F1010405DC039AF7
:1055E0000A2101FB0233039304E0102CDCBF0A21E3
:1055F00001FB06360021199B581C19905B78084660
:1056000002E02C4608460291A3F130010929C2D9D3
:105610000127652B01D0452B60D174B905E0652BBE
:1056200040F0C38400230293012728B9049B002B78
:1056300000F0A280044600E00024DDF864A00AF136
:10564000010319939AF801302B2B07D02D2B02D090
:105650004FF0000C09E04FF0010C01E04FF0000C9E
:105660000AF1020319939AF80230A3F130010929D3
:1056700032D81946302904D1199B591C19915978EF
:10568000F8E7A1F1310EBEF1080F0B4626D8199BA1
:1056900006933039199B03F1010ECDF864E05B7875
:1056A000A3F13002092A05D84FF00A0E0EFB013192
:1056B0003039EFE7069AC2EB0E0EBEF1080F44F642
:1056C0001F6E03DC7145A8BF714600E07146BCF156
:1056D000000F04D0494202E0CDF864A00021002C64
:1056E00054D1002840F05384049A002A40F04F849B
:1056F000002F41D14E2B20D002DC492B0AD03BE0B9
:10570000692B07D06E2B18D036E000BF60990008D7
:105710000000F07F19A8A649FFF725FE60B3199B8A
:10572000A449013B19A81993FFF71DFE10B9199B55
:1057300001331993DFF894921AE019A89E49FFF7F4
:1057400012FEC8B1199B1B78282B0FD119A89B49B1
:105750001CAA02F055F8052808D11D9BDDF87080C1
:1057600043F0FF4949F4E00900F011BCDFF8609212
:105770004FF0000800F00BBC169BCDF864A0002B86
:1057800000F010840023099300F003BC029B0398EF
:10579000CB1A002D14BFAA46A246102C254604930E
:1057A000A8BF102503F074F9092D8046894613DD42
:1057B000834B03EBC50353E9122303F0DFF9804663
:1057C0003046894603F064F902460B464046494696
:1057D00003F022F8804689460F2C37DC049B002B0F
:1057E00000F0D58324DD162B07DC754A02EBC302DB
:1057F000D2E900014B46424615E0049AC4F1250364
:105800009A4223DC6E4DC4F10F0405EBC403D3E9C7
:10581000000142464B4603F0B1F9049B1C1B05EB0B
:10582000C405D5E9002303F0A9F980468946AEE313
:10583000049B13F1160F09DB614AA2EBC302404639
:105840004946D2E9002303F0C3FAEEE7049B651B47
:105850001D44002D54DD15F00F020AD0584B03EB08
:10586000C203D3E9000142464B4603F087F9804664
:10587000894635F00F0500F0B180B5F59A7F0BDD54
:105880000024A246059403942223CBF80030DFF8CD
:105890003C914FF0000880E14946DFF838912D1126
:1058A000404600274E46012D0ADDEA0703D5D9E917
:1058B000002303F063F901376D1009F10809F2E7DD
:1058C0008046A1F1547906EBC70642464B46D6E91D
:1058D000000103F053F921F0004389460A461B0DED
:1058E00038491B058B428046CAD8A1F580118B42EE
:1058F00086BFDFF8E4904FF0FF3802F154796DE095
:105900006CD06D4215F00F020AD02D4B03EBC20391
:1059100040464946D3E9002303F05AFA80468946B7
:105920002D115BD01F2D04DD0024A24605940394A5
:105930002CE115F0100F0CBF00236A23224E0293B6
:1059400040464946002D08DDEB0703D5D6E9002384
:1059500003F014F96D100836F4E7029B804689467F
:10596000EBB1C1F30A53C3F16B03002B0A4616DDFA
:105970001F2B0EDD342BDEBF203B4FF0FF3101FA31
:1059800003F34FF00008CCBF4FF05C7903EA020943
:1059900005E04FF0FF3202FA03F303EA0008404645
:1059A00049460022002303F051FB0028BCD117E038
:1059B000CA980008789A0008D2980008249900082C
:1059C000909A00080000A07C389900080000F07F41
:1059D0000000F8FF589B0008FFFFEF7F00230293B1
:1059E000039B0093584605995246234602F05DF802
:1059F000059000283FF444AF049A049B002AC3F1A9
:105A000000034FF00004A8BF00231293A246059B99
:105A10005846596801F0BFFF039000283FF434AFA7
:105A2000059B1A69059B023203F10C0192000C30B0
:105A3000FEF775F81BAB00931CAB0193584642462A
:105A40004B46CDE90A8902F0E6FA1A9000283FF4A5
:105A50001BAF5846012102F0B5F8824600283FF4FA
:105A600013AF049B02991C9D23EAE37308931B9BCD
:105A7000002BADBF129A089A129ED618B8BFD21A40
:105A8000A3EB01032B446FF47F71A8BF089A8B42EC
:105A9000C5F1360580F28680C91A1F29A5EB0105DC
:105AA000C8BFB3494FF00100D5BF00FA01F3C91ACE
:105AB000139300FA01F3D9BF0023069306931390C2
:105AC0007719029BB74215441D443B46A8BF334695
:105AD000AB42A8BF2B46002BC2BFFF1AED1AF61A25
