:020000040800F2
:1000000000800120DD190008291A0008291A0008BB
:10001000291A0008291A0008291A000800000000FF
:10002000000000000000000000000000C102000805
:10003000291A0008000000004D030008A50300086D
:10004000291A0008291A0008291A0008291A000884
:10005000291A0008291A0008291A0008291A000874
:10006000291A0008291A0008291A0008291A000864
:10007000291A0008291A0008291A0008291A000854
:10008000291A0008291A0008291A0008000000008F
:10009000000000000000000000000000291A000815
:1000A000291A0008291A0008291A0008291A000824
:1000B000291A0008291A0008291A0008291A000814
:1000C000291A0008291A0008291A0008291A000804
:1000D000291A0008291A0008291A0008000000003F
:1000E000291A0008291A0008291A0008000000002F
:1000F000000000000000000000000000291A0008B5
:1001000000000000291A0008291A0008291A00080E
:1001100000000000000000000000000000000000DF
:10012000291A0008291A0008291A0008291A0008A3
:10013000291A000800000000000000000000000074
:10014000000000000000000000000000291A000864
:10015000291A0008291A0008291A0008291A000873
:10016000291A0008291A00080000000000000000F9
:10017000000000000000000000000000000000007F
:1001800000000000291A0008000000000000000024
:10019000291A000810B5054C237833B9044B13B164
:1001A0000448AFF300800123237010BDE802002053
:1001B0000000000064A00008084B10B51BB10848FF
:1001C0000849AFF300800848036803B910BD074B26
:1001D000002BFBD0BDE81040184700BF0000000016
:1001E00064A00008EC020020E402002000000000EF
:1001F000154B002B08BF134B9D46A3F5803A0021F9
:100200008B460F461348144A121A03F0CBFD0F4BCE
:10021000002B00D098470E4B002B00D098470020B1
:10022000002104000D000D48002802D00C4803F006
:10023000CCF903F019FD2000290001F099FB03F02F
:10024000DFF900BF0000080000800120000000006E
:1002500089040008E8020020F0130020CB350008D4
:100260001D3A000880F309887047EFF30980704752
:10027000684680F3098851480078C00714BF0220FF
:10028000032080F314887047DFF834C1EFF305834F
:100290001B0618BF6047EFF31483DB0708BF6047F6
:1002A00000DF7047DFF81CC1EFF305831B0618BFA2
:1002B0006047EFF31483DB0708BF604700DF704738
:1002C000EFF30980816911F8021C79BB90E80F10E7
:1002D00010B5E047BDE81040EFF3098C8CE807004B
:1002E000394B93E80600914208BF704771B11EF088
:1002F000100F0CBF0120002081F820002CE9F00F26
:10030000C1F828C00CB400F02DFE0CBC1A60D2F865
:1003100028C0BCE8F00F92F82000002814BF6FF04E
:10032000120E6FF0020E8CF30988704710B5274A41
:100330001268914209D8264C54F8214090E80F10D9
:10034000A047EFF3098C8CE80F0010BD10B500F04A
:1003500099FDBDE810401C4B93E80600914208BF90
:100360007047EFF3098C1EF0100F0CBF0120002026
:1003700081F820002CE9F00FC1F828C00CB400F07F
:10038000F1FD0CBC1A60D2F828C0BCE8F00F92F85E
:100390002000002814BF6FF0120E6FF0020E8CF3D5
:1003A0000988704710B500F0BFFDFFF7D2BF10B548
:1003B00000F0B8FD00F0B8FDFFF7CBBF32960008A3
:1003C000810D00089B0D0008380E00200000000081
:1003D000FCFFFFFF7047000008B5024B1B68984701
:1003E000FBE700BF98010020436AF0B5C46A23F020
:1003F000030323445A0748BF043B4FF0807203E9CC
:100400000600A3F14005A3F14402A3F10C06002766
:1004100042F8047FB242FAD1C26943F8202CC37873
:100420008562012B18BF024B016318BF2360F0BD2A
:10043000A52E5AE290F82020836A0AB1603300E0CA
:1004400020331960704710B590F82040836A0CB1D2
:10045000603300E0203383E8060010BDFFF7BCBF27
:1004600001F05EB808B101F05BB870470449054A75
:10047000C1F1005303F5BE339360D160704700BFF4
:10048000F01300209C0100200020002104460D46AE
:10049000094803F09AF803F0E7FB2046294600F0EC
:1004A00073F8FFF7E3FF0548002100F009F900F0B9
:1004B0007FF803F0A5F800001D3A00089C01002019
:1004C00038B1830704D10378002B18BF0020704790
:1004D0000020704700B5DFF80CC000DFDFF808C06F
:1004E00000DFFEE78D060008A50600080B4A13682A
:1004F00030B5002433B11D89A94203D31C46491BE2
:100500001B68F7E789B20360018113B11D89691A7D
:1005100019810CB1206030BD106030BDF00D00209D
:10052000431C11D00B4B984211D80B4B1B684FF456
:100530007A715A1E01FB0020B0FBF3F04FF6FE73F8
:10054000984228BF184670474FF6FF7070474FF625
:10055000FE70704700093D003496000838B5084C1D
:10056000257855B900F008FE064B1B68FF229A70EB
:100570002846FFF777FF01232370002038BD00BF16
:10058000EC0D0020380E002010B5EFF305845CB9A7
:10059000EFF31484E40703D4BDE81040FFF7DEBF97
:1005A000DFF808C000DF10BD822010BD5D05000827
:1005B00010B588B0EFF3058434BBEFF3148404F076
:1005C0000304022C0CD0032C16D0012C1ED008AC36
:1005D00084F309880F4C2478E40705D5022404E04D
:1005E0000C4C2478E4070BD4032484F31488BFF361
:1005F0004F8FBFF36F8F03E0064C2478E40705D4D8
:10060000DFF814C000DF02E0822000E0FF2008B025
:1006100010BD00BF32960008F90700082DE9F84325
:100620008946044650B1036843B18588EB1C9BB2F0
:10063000062B03D883680BB1C2682AB98020FFF764
:1006400011FF0020BDE8F8834363C26300F1100688
:1006500000F0ACFC0B4F00F1FF38291D47F8286073
:10066000C9B22268E074C4F82C90304600F0B0FCA7
:10067000304600F0CBFC57F82800034A836A5A63DF
:10068000BDE8F883880B0020D504000808B500F009
:10069000F9FC18B10138024B53F8200008BD00BF27
:1006A000880B002008B5FFF70BFF38B1C07800F0C9
:1006B0002BFDFF280CBF8120002008BD802008BD35
:1006C00070B505460C46EFF3058686B9EFF3148640
:1006D000F60706D4074E36781EB9BDE87040FFF71E
:1006E0009DBF28462146DFF810C000DF70BD002006
:1006F00070BD00BFF40D00201D06000810B5EFF31B
:1007000005841CB9DFF808C000DF10BD822010BDD1
:10071000A506000808B530B1FFF702FF80B200F06F
:10072000B7FD402008BD08BD10B5EFF305841CB926
:10073000DFF808C000DF10BD822010BD15070008DB
:10074000830704D128B10369C1681B6803E0002353
:1007500000E003461946184670470000F8B5134BF1
:100760001C681F460CB32389013B23812389E3B90D
:100770000F4B26681D683E6055B12B78012B07D1C1
:10078000284600F05DFA18B12846214600F05CFAD0
:100790006379012B04D120466189FFF7A7FE01E0B0
:1007A000012323710EB13446E0E7F8BDF00D0020BF
:1007B000E80D002010B504460846DFF80CC000DF45
:1007C00084E80300204610BD4107000810B5044628
:1007D00018B1016809B1406820B98020FFF742FED6
:1007E000002010BD0378002BF7D10431890089B2B5
:1007F00000F0C6F9606810BD38B5104D2C78D4B93A
:1008000021460F48FFF7E2FF0E4B214618600E48C5
:10081000FFF704FF0D4B21461860204600F03AFC1C
:100820000B4A13689B6A203383F30988146000F035
:1008300011FD01232B70002038BD00BFF40D0020F6
:10084000E0010020E80D0020E8010020E40D002078
:10085000380E00202DE9F04F0C4685B08046E8B1F7
:100860000378012B1FD10846FFF75AFE02A982B276
:10087000404600F093F9012806D10020002C0246E2
:10088000034618BF402003E0002002460346102024
:10089000029904460D4616461F4608E08024054688
:1008A0000646074603E0002580242E462F462046B4
:1008B000294632463B4605B0BDE8F08F7FB5044679
:1008C00016460846EFF30581A9B101AD00B10AB1A2
:1008D00080230AE00378012BFAD102A900F0BBF9CA
:1008E000042801D0019601E01023019395E8070048
:1008F00084E8070005E01146DFF80CC000DF84E85B
:100900000700204604B070BD550800087FB50A4BAB
:1009100003A819684FF0FF32FFF7D0FF039B102B9D
:10092000F5D101A80499FFF745FF019B002BEED0FC
:1009300002989847EBE700BFE80D002010B5038B45
:1009400042781943062A04460183438B04D101EA05
:1009500003029A4219D105E0052A16D111EA0302D1
:1009600013D0428321EA03012183204600F0D4F80A
:100970000123204663700821628BFFF764FD214646
:100980000248BDE8104000F003B810BD100E002072
:1009900030B502788C784368013AD2B22BB19D7899
:1009A000A54202D318465B68F8E7022A4B60416013
:1009B00003D803B19960886030BD00238B6030BDDF
:1009C00002784368013A59684160022A4FF00002F8
:1009D00004D809B188605A609A6000E05A601846ED
:1009E00070470000034B5A684260002282605860E2
:1009F000704700BF100E0020114BDA6810B50AB125
:100A00009A8A0CE000248A1AC460D86003619A8232
:100A1000848210BD002CF5D0A38A1A4423468A4252
:100A2000DC68F7D3C460D860C468036104B1206196
:100A3000521A92B28282998A8A1A9A8210BD00BF93
:100A4000F80D002038B5194DEB68002B2CD0AB8A7F
:100A5000013BAB82AA8A002A26D1144BDC681CB366
:100A6000A3683BB161685960616809B18B606260DD
:100A70000023A3600E482146FFF78AFFA38AAB82BA
:100A80006378042B01BF0B4B1A68E38A9B1808BFDD
:100A9000A38201236370E368EB60002213B1034972
:100AA0001961E2602261D5E738BD00BFF80D002072
:100AB000100E0020740E0020836853B9084B5A684A
:100AC000824202D142685A6070471346002AF6D12A
:100AD000704742685A60426802B19360704700BF35
:100AE000100E002038B58468054624B94378012BE0
:100AF0000ED1084C03E023780BB9A468FBE7284625
:100B0000FFF7DAFF20462946BDE83840FFF740BF2F
:100B100038BD00BF100E0020036910B573B1C26864
:100B2000DA60C2683AB1998A848A21449982136151
:100B30000023C36000E09A820023036110BD00001F
:100B400030B50E4BDD78EFF3108272B69A78AA4278
:100B500007D201329A701A78541CAC4208BF0024A4
:100B60001C7062B6AA4204D203EBC20358609960BB
:100B700030BD0220BDE83040FFF772BC040B0020FE
:100B80000123103903708908002343708370436088
:100B9000038143818381C1817047000070B58589DD
:100BA00004461646002D34D043891A1D013350F8EF
:100BB00022200A60C2899BB29A42438104BF00236B
:100BC00043814368EBB14378022B1AD1FFF7F8FE5B
:100BD00000210546FFF72EFC2389E9691A1D013320
:100BE00044F82210E2899BB29A42238108BF002375
:100BF000284608BF2381FFF78FFF284600F006FA3A
:100C000005E0EFF3108372B6013DA58162B60020C6
:100C100070BD82B14268094B1AB11968FFF7B8FE7E
:100C200005E01B6843605A609860012343703046BA
:100C3000082100F00DFA012070BD00BF380E002021
:100C4000C2898089101A704708B5FFF779FFBDE89F
:100C5000084000F005B9838910B50446EBB143891B
:100C6000043350F823300B604378022B04D1002169
:100C7000FFF766FF00F0F4F8EFF3108372B6A38974
:100C8000013BA38162B66389E28901339BB29A4238
:100C9000638104D10023638101E0184610BD042064
:100CA00010BD0000426870B504460E46002A4AD0C6
:100CB0004578022D1CD0032D0AD0012D5DD1FFF700
:100CC0007FFE044610213246FFF7BDFB657034E01D
:100CD000084600F055F8054600284ED02046FFF79C
:100CE0006FFE29460446FFF7A5FB0123637024E04D
:100CF000FFF766FE00210546FFF79CFB2389E969A3
:100D00001A1D44F82210EFF3108272B6A289013244
:100D1000A28162B6E28901339BB29A42238104BF69
:100D200000232381012328466B70FFF7F5FE13484B
:100D30002946BDE87040FFF72BBE2046FFF7ECFECA
:100D40000E482146F5E78189C089814210D2238966
:100D50001D1D44F82560EFF3108572B60131A181A5
:100D600062B601339BB2834214BF2381228170BDDE
:100D70000320BDE87040FFF773BB70BD100E00206C
:100D8000EFF3108372B6026803F001030AB1116831
:100D9000016003B962B61046704781420DD34368C3
:100DA00099420AD2EFF3108372B602680A600160BA
:100DB00013F0010003D162B6704701207047002094
:100DC00070470000034B00221A60034A1268DA8061
:100DD000704700BF280E00204096000808B5104B51
:100DE00010485A68104B196891421FBF1A60DA8880
:100DF00002F1FF3102681CBF52189A809A8803885A
:100E00009A420BD1084B064800221A60FFF7D8FD22
:100E1000BDE8084001460248FFF7BABD08BD00BF63
:100E2000100E0020740E0020280E0020426810B51D
:100E30007AB1FFF7C5FD0446FFF76EFE0121617030
:100E40002046FFF7F7FA21460448BDE81040FFF7B7
:100E50009FBD42880132428010BD00BF100E0020AD
:100E6000054B1B7823B9054B4FF080521A60704731
:100E7000034B01221A707047350E002004ED00E08C
:100E8000340E002038B5184B184D186801234370F4
:100E9000FFF7A8FD6C78AA78144BEAB103EBC40302
:100EA000586802781AB91989FFF748FD07E0012A46
:100EB00003D19968FFF7F6FE01E0FFF7B7FFEB7883
:100EC00001349C4208BF0024EFF3108372B6AB7864
:100ED000013BAB7062B6DEE75C700548FFF770FD62
:100EE000BDE8384000F08AB8380E0020040B00201E
:100EF000100E0020084B1A68084B1A6000225A6036
:100F0000072243F8042C064A136843F07F4313601A
:100F10004FF0FF30704700BF3C96000814E000E03F
:100F200020ED00E07047000008B50B4B1868012366
:100F30004370FFF757FDFFF751FF084A136801336D
:100F40001360FFF77FFDFFF709FC0548FFF738FD49
:100F5000BDE8084000F052B8380E0020740E0020A2
:100F6000100E0020084B1B68DA78012A0AD0DA6AD2
:100F70009B6A9A4203D81268044B9A4202D001201D
:100F8000FFF76EBA704700BF380E0020A52E5AE258
:100F900008B50448FFF714FD034B58600223437063
:100FA00008BD00BF100E0020380E0020064B1A8826
:100FB000064B0120904204D853F8041F11B10130B0
:100FC000F8E70020704700BF30960008840B00202F
:100FD00030B5002401250470457081704460846040
:100FE000C46004618482C4820483448380F8204006
:100FF0001146BDE83040FFF7F7B90000024B5860DA
:1010000002234370704700BF380E002070B50446BD
:1010100018B9BDE87040FFF7BBBF0B4DA278286838
:1010200083789A424FF0010607D9FFF7DBFC2B6863
:101030005E7002236C60637070BD66702146034869
:10104000BDE87040FFF7A4BC380E0020100E002051
:1010500038B50D46014678B14FF6FF739842074CFC
:1010600002D02068FFF7C8FC236805485D70FFF7D1
:10107000A7FC02236060437038BD00BF380E00201B
:10108000100E0020024B186800B1C078704700BFF6
:10109000380E002010B588B9174B1B689970174897
:1010A00043689B788B4222D9134C2168FFF770FC70
:1010B000236801225A70FFF76BFF18E0104B1B8862
:1010C000984216D801380F4B53F820408CB10A4B88
:1010D000A1701B689C42E2D02046FFF703FD6378B5
:1010E000012B04D10548FFF76BFCFFF78FFF0020B1
:1010F00010BDFF2010BD00BF380E0020100E0020D4
:1011000030960008880B002070B5184D18B12B6878
:10111000DB78984213D12E6800247470FFF7A5F88D
:10112000B062FFF71FFF2A681149D3782C60013B9A
:1011300041F82340D462FFF72BFF204670BD0D4BD2
:101140001B8898420FD8441E094E56F8245055B1BA
:101150002846FFF7B1FC2846FFF7DEFC002046F8E2
:101160002400E86270BDFF2070BD00BF380E002073
:10117000880B00203096000810B5284B1A880023F1
:10118000934205D22649002041F823000133F7E7B6
:10119000244C254AFF23E370244B1B8863622046BE
:1011A000234BE3620021FFF713FF224A00230421AF
:1011B00011705360204A1170D360136193821F4AEB
:1011C0001460022262701E4A137053701D4B1B780C
:1011D000D370FFF7F7FD1C4B1A6842F47F021A60C8
:1011E0001B681B0203F07F43DB43B3FA83F3174A08
:1011F00017481268DBB2C3F10803C2F302229A4215
:10120000A8BF531C6FF08071026801FA03F303F06A
:101210007F4122F07F430B43036010BD30960008EE
:10122000880B0020400E00205D040008389600085E
:10123000E40B0020100E0020F80D0020380E0020D6
:10124000040B00203A96000820ED00E00CED00E0D1
:101250001CED00E008B5FFF74DFE0C4B00281860B0
:1012600012DB00F1604000F56440FF2202701A6852
:1012700053119B0003F1604303F5614302F01F0229
:10128000012101FA02F21A6008BD00BF300E0020F1
:101290000321FFF7DDBE704710B5064B036003F175
:1012A00018024C330446C26503665C3001F068FDE9
:1012B000204610BD80980008A0F15C00FFF7ECBF4D
:1012C000A0F16000FFF7E8BF10B5044602F052F944
:1012D000204610BD014608B5084803F0F9FE084B4A
:1012E0001B68986802F0A8FA064A93681968536860
:1012F000D268194218BF1B04136008BD4496000849
:1013000098020020180F002008B5024801F04AFD9D
:10131000C0B208BDEC0E002008B54FF47A7000F0A2
:10132000FCF8054801F0C4FC0028F6D0FFF7ECFFFC
:10133000FFF7D0FFF1E700BF900E002000B509488D
:1013400097B003F055FF4FF4006300220093019221
:1013500002A80549134600F091F84FF4FA7000F026
:10136000DCF8FAE7799600081913000810B504466E
:10137000FFF792FF204602F0FDF8204610BDA0F1D5
:101380005C00F3E7A0F16000F0E70000000000005F
:1013900038B52D4C2D482DED028B10251921182222
:1013A00001F018FC2A462046002102F0FBFC2046F2
:1013B000052101F01FFD264BDFED267A93ED008A13
:1013C000254B264C68EE277AC3ED007A17EE900A7B
:1013D00007F08CFD1AA3D3E9002307F0DBFD08F02A
:1013E000BBF8DFED1F7A1F4B28EE278A18601E4BD3
:1013F00018EE100A83ED008A07F078FD10A3D3E9F8
:10140000002307F0C7FD08F0A7F8184B0221186069
:1014100003220023204601F0FBFB2046144C154913
:10142000154A02F0BCF8204600212A4602F0BAFC18
:10143000BDEC028B20460521BDE8384001F0DABC46
:10144000AA4C58E87AB6EB3F800E00200C0F002023
:101450002C020020ABAAAA3E7C0E0020900E002099
:10146000610BB63B040F0020080F0020780E00200F
:10147000180F0020991200089401002070B5049DF7
:101480000446059825611646124A2260A160A38190
:10149000AD0810B16061002309E0B5F1FE5F94BFB3
:1014A000A8004FF0FF3002F07FF80123606184F85C
:1014B0004C300023AB4205D06269074942F8231043
:1014C0000133F7E704F108003146FFF7F9F86060EF
:1014D000204670BDA0960008A52E5AE24068FFF78E
:1014E0000DB9000010B5074B03600446FFF7F6FF87
:1014F00094F84C301BB1606908B102F04EF82046F8
:1015000010BD00BFA096000810B50446FFF7EAFF23
:10151000204602F02FF8204610BDFFF705B9000065
:1015200000B585B072B60521684601F063FC10E095
:10153000039B019A1A60962001F0E2FC9DF90030AD
:10154000013310D0019B039A1B041360962001F015
:10155000D7FC9DF900300133EAD106480649342210
:1015600001F02AFCE4E703480349342201F024FC9B
:10157000E8E700BFA8960008C09600080F4A30B4FC
:1015800093689468B4F1006F1A4604D0103030BCF0
:1015900042F8201070470A4A03F5CA7553F8044B05
:1015A00042F8044FAB42F9D14FF00052034B1030D8
:1015B0009A6030BC42F82010704700BF00ED00E098
:1015C000FCFFFF1F70B5114C2368DA68910715D432
:1015D000DA68520709D56FF004020D4E1A615D6A90
:1015E0003368EB1AB3F57A7F00D270BD00F038FA99
:1015F0002368356005F57A759D6370BD6FF0020252
:101600001A6101F06BFC2368E2E700BF5013002071
:10161000280F0020244B30B51A6C244C42F00802ED
:101620001A641A6C83B002F008020192019A1A6AD5
:1016300042F008021A621A6A22F008021A6201F0E5
:101640004BF81B4B1B4A1B681B492160A2FB032361
:101650009B0C0025013B4FF0FF3220466360E260A7
:101660002561A560656100F021FF32201349FFF775
:1016700085FF134B4FF480225A602946204600F024
:10168000A7FE2046042100F0A3FE23680D495A6AF4
:101690000A6002F57A729A63DA68284642F0040218
:1016A000DA6003B030BD00BF0038024050130020A4
:1016B0003402002083DE1B43000C0040C5150008E7
:1016C00000E100E0280F002008B501F005F8BDE8B2
:1016D000084000F0ABB900BF036870B51B6900217A
:1016E000012204469847431C06460ED02368204634
:1016F0001B690021022298472368054631461B6971
:10170000204600229847284670BD70BD024802213D
:10171000032201F03BB900BF8C130020084B094A9B
:10172000026010B403F58071002453F8042F824244
:1017300008BF1C608B42F8D15DF8044B704700BFB6
:10174000280F002050970008F0B50E4685B03649A6
:10175000054603F0E8FF20B9344B1B6863B105B0C0
:10176000F0BD2846324903F0DEFF78B92F4B1B68E5
:1017700043B1012005B0F0BD0190FFF7C7FF01980C
:1017800005B0F0BDFFF7C2FF0120E8E72846294970
:1017900003F0C9FF10B3284B002402E00134402CB1
:1017A00021D053F8042F002AF8D12B783A2B33D0CC
:1017B000294602A801F0B2F902A801F005FA90B199
:1017C00002A801F0E7F988B102A801F0EDF903469B
:1017D0004BB11A4AE01C42F82430C0E7134B1B6897
:1017E000B3B10220BBE74FF0FF30B8E702A801F029
:1017F000C1F905460028F6D0036802A89F6801F0E9
:10180000B7F926F4803201462846B8470346DFE799
:10181000FFF77CFF0220A2E72846094902AA03F04D
:1018200013FF029BD4E700BF30970008541000203C
:101830004097000838970008280F00202C0F002040
:101840007497000802280ADDC31E074A52F82300D5
:10185000002142F8231020B103685B68184700207C
:1018600070474FF0FF3070472C0F0020022812DC29
:101870000E4B1B6870B50C4616460BB9FFF746FFBA
:10188000A51936B114F8011B094801F02FF9AC4233
:10189000F8D1304670BD0338064B53F8200010B124
:1018A00003681B6818474FF0FF3070475410002042
:1018B0008C1300202C0F002002280DDC0C4B1B6821
:1018C00010B50C460BB9FFF721FF0A4801F000F9EB
:1018D00001232070184610BD0338074B53F8200031
:1018E00010B103689B6818474FF0FF3318467047E4
:1018F000541000208C1300202C0F0020022807DD3C
:101900000338064B53F8200020B10368DB68184702
:10191000012070474FF0FF30704700BF2C0F0020B0
:10192000022807DD0338064B53F8200020B1036876
:101930001B691847002070474FF0FF30704700BF09
:101940002C0F0020022808B504D84FF400534B6038
:10195000002008BD01F04EFE092303604FF0FF3068
:1019600008BD00BF08B5012001F04AFE704700BF66
:1019700008B5FFF7A9FEFFF7F9FFBDE80840FFF73C
:10198000DDBC00BF074A13681844EFF308818842A2
:1019900002D2106018467047034B0C221A604FF0B9
:1019A000FF30704730020020EC130020074C08B5D0
:1019B00023680546986801F03FFF2368D86801F066
:1019C0003BFF05B9FEE7FFF7ABFDFBE79802002000
:1019D000002103F03DBD00BF01F06CBFDFF830D047
:1019E000002103E00B4B5B58435004310A480B4B7A
:1019F00042189A42F6D30A4A02E0002342F8043B16
:101A0000084B9A42F9D300F047FFFEF7F1FB70470D
:101A10000080012098A0000894010020E802002026
:101A2000E8020020F0130020FEE7000008B50B4B91
:101A30001A6842F400721A601A6842F480621A60EE
:101A40001A6842F480721A60032000F017F80F2021
:101A5000FFF7E0FD00F024F8002008BD003C024044
:101A6000024A136801331360704700BF2C10002036
:101A7000014B1868704700BF2C100020074AD1683E
:101A80004FF6FF030B4043F0BF6300F0070043F441
:101A9000003343EA0023D360704700BF00ED00E04D
:101AA000704700BF2DE9F04FDFF8D0C1D1F800E05A
:101AB0006D4F83B000234FF0010803E00133102B7A
:101AC00000F0858008FA03F202EA0E049442F5D190
:101AD0004D6825F0100ABAF1020F7BD04FEA430996
:101AE0000322D0F800B002FA09F2D24305F003064F
:101AF00002EA0B0B06FA09F60AF1FF3A4BEA060670
:101B0000BAF1010F066040F28B80C66832408E68E1
:101B100006FA09F61643EA00C660CFD5DCF8442081
:101B200042F48042CCF84420DCF8446023F0030205
:101B300006F48046019602F1804203F003064FEA64
:101B4000860B02F59C320F2606FA0BFA474EDDF89B
:101B50000490D2F80890B04229EA0A0974D006F538
:101B60008066B04272D0424EB04272D0414EB04216
:101B700074D0414EB0420CBF4FF0040A4FF0050A3A
:101B80000AFA0BF646EA090696603A68E64315F447
:101B9000803F14BF224332403A607A6815F4003F18
:101BA00014BF224332407A60BA6815F4801F14BF14
:101BB00022433240BA60FA68AD0203F1010354BF18
:101BC00006EA02041443102BFC607FF47BAF03B0E1
:101BD000BDE8F08F4FEAD30900EB890903F007064F
:101BE000D9F82020B6004FF00F0A0AFA06FB22EAC5
:101BF0000B0A0A69B2404AEA0202C9F820204FEAF9
:101C000043090322D0F800A002FA09F2D24305F0FA
:101C1000030602EA0A0A06FA09F64AEA0606066016
:101C2000866802EA060ACE6806FA09F64AEA060655
:101C30008660D0F804A0C5F300162AEA040A9E4084
:101C40004AEA0606466060E700269BE708FA0BF6BC
:101C500098E74FF0020A0AFA0BF693E74FF0030AEF
:101C60000AFA0BF68EE700BF003C0140000002407C
:101C700000080240000C0240001002400038024000
:101C8000704700BF002869D0F8B590F83530044699
:101C900003F0FF02002B4CD02268314D022384F860
:101CA0003530136823F00103136000F063FB2D4A05
:101CB00061682368A2FB0062920CA9425A6023D893
:101CC0004900B0FBF1F0C0F30B01013203291A62A5
:101CD00098BF042004F1100146C9E569D4F820E05A
:101CE000E768D86139434EEA0500324318609960CD
:101CF000DA601A68002142F0010201251A600846E4
:101D0000A16384F83550F8BD4FF49675164FA66858
:101D100005FB02F2A7FB0252920901321A626EB968
:101D200001EB4101B0FBF1F0C0F30B029AB90120C5
:101D3000D0E780F83420FFF7A3FFADE701EB810186
:101D400001EB8101B0FBF1F0C0F30B02002AEED0F1
:101D500040F44040BEE740F40040BBE7012070473C
:101D6000A086010083DE1B43D34D6210F0B50368EB
:101D7000DE0783B0044633D5A1498A6802F00C021D
:101D8000042A00F0EE808A6802F00C02082A00F0B3
:101D9000E4809C4B9A4D00221A70FFF769FE0646BC
:101DA00005E0FFF765FE801BC82800F2C5802B68A0
:101DB0009903F6D4934B22791A706368002B00F0D4
:101DC0000C81FFF755FE8E4D064605E0FFF750FEED
:101DD000801BC82800F2B0802B689A03F6D52368D0
:101DE0009F072ED5864A916811F00C0F00F0AB804A
:101DF000916801F00C01082900F0A180E368002B34
:101E000000F0DA80804B7E4D01221A60FFF730FE31
:101E1000064605E0FFF72CFE801B642800F28C804C
:101E20002B68774A9807F5D51168F82090FAA0F04A
:101E30002369B0FA80F021F0F80183400B4313606E
:101E400023681A0720D4580734D4A369CBB16C4D4A
:101E5000AA6802F00C02082A7CD0022B6B4B4FF0D0
:101E600000021A6000F0C780FFF702FE2C4605460C
:101E700004E0FFF7FDFD401B64285DD823689B014B
:101E8000F7D4002003B0F0BD6369002B73D0604B22
:101E90005B4D01221A60FFF7EBFD064604E0FFF7F9
:101EA000E7FD801B642847D86B6F9B07F7D5236835
:101EB0005807CAD5524B574D1A6C42F080521A64DB
:101EC0001B6C03F080530193019B2B6843F48073D8
:101ED0002B60FFF7CDFD064604E0FFF7C9FD801B30
:101EE000642829D82B68D905F7D54B4B444D0022DF
:101EF0001A70FFF7BDFD41F28836074604E0FFF790
:101F0000B7FDC01BB04217D82B6F9A07F7D4424BCE
:101F1000227A1A70A368002B00F0C080FFF7A8FD9A
:101F2000374D074641F288362B6F9B078DD4FFF75C
:101F30009FFDC01BB042F7D9032003B0F0BD52682B
:101F400056023FF55BAF2E4A1268950723D5E2682B
:101F5000012A20D0012003B0F0BD4A6855027FF568
:101F600018AF274A126890037FF53AAF6268002ADB
:101F70007FF436AFEEE7264A214D1360FFF778FD78
:101F8000064604E0FFF774FD801B6428D4D86B6F0D
:101F90009F07F7D48BE71A4DF820296890FAA0F034
:101FA0002269B0FA80F021F0F80182400A432A60E9
:101FB0001A077FF548AF67E7134A114D1360FFF723
:101FC00057FD064604E0FFF753FD801B6428B3D895
:101FD0002B689907F7D4236833E7FFF749FD084DCD
:101FE000064604E0FFF744FD801BC828A4D82B68F0
:101FF0009B03F7D4F3E6FFF73BFD064613E000BF73
:102000000038024002380240000047426000474268
:10201000800E47420070004070380240FFF728FDF4
:10202000801B642888D82B68244A9901F6D447F687
:10203000C07797FAA7F74FF44036B7FA87F796FAC2
:10204000A6F64FF07060B6FA86F690FAA0F0A36A92
:10205000656AD4F820C0D4F81CE0E16AB0FA80F0D8
:102060005B0805FA07F4013B4CEA0E052C43B3402C
:102070008140234312480B43012153600160144601
:10208000FFF7F6FC054605E0FFF7F2FC401B64286D
:102090003FF652AF23689A01F6D5F2E6FFF7E8FC67
:1020A000064D074641F288362B6F98077FF5CDAE77
:1020B000FFF7DEFCC01BB042F6D93DE70038024016
:1020C000600047427C4A136803F00F038B422DE9FE
:1020D000F0410C46054609D2CBB21370136803F0E9
:1020E0000F038B4258D00120BDE8F08103689A07A6
:1020F00006D57248AA68816821F0F0010A4382601F
:10210000DF0727D56B68012B79D09A1E012A6B4A0D
:10211000126840F287809107E5D5684EB26822F0D8
:1021200003021343B360FFF7A3FC6B68012B074660
:102130007CD0022B00F08880032B65D041F28838D8
:1021400004E0FFF795FCC01B404565D8B36813F069
:102150000C0FF6D1584BE2B21A701B6803F00F0354
:10216000A342C0D12B685A0706D55448EA68816853
:1021700021F4E0510A4382601B0707D54F4A2969C1
:10218000936823F4604343EAC10393600F20FFF791
:1021900041FA0020BDE8F08103689F0706D5474853
:1021A000AA68816821F0F0010A438260DE07DAD56F
:1021B0006B68012B56D09A1E012A404A12682ED90C
:1021C000910790D53D4CA26822F003021343A3600F
:1021D000FFF74EFC6B68012B064648D0022B54D00B
:1021E000032B60D041F2883704E0FFF741FC801BED
:1021F000B84211D8A36813F00C0FF6D1B2E72F4AFA
:102200001268960389D46EE741F28834B368FFF709
:102210002FFCC01BA042F9D90320BDE8F08190013A
:10222000D0D460E790013FF578AF5CE741F28838A1
:1022300004E0FFF71DFCC01B4045EDD8B36803F078
:102240000C03042BF5D185E741F2883804E0FFF751
:102250000FFCC01B4045DFD8B36803F00C03082B0C
:10226000F5D177E7154A12689403ABD43BE741F206
:10227000883704E0FFF7FCFB801BB842CCD8A3688A
:1022800003F00C03042BF5D16CE741F2883704E02E
:10229000FFF7EEFB801BB842BED8A36803F00C0327
:1022A000082BF5D15EE741F28835A368FFF7E0FB24
:1022B000801BA842F9D9AFE7003C02400038024039
:1022C0001C498B6803F00C03042B31D0082B2DD153
:1022D0004A6830B44D6802F03F0447F6C0734A685C
:1022E000690293FAA3F347F6C07000EA02004ABFFE
:1022F0001149124AB1FBF4F20E49B3FA83F320FA02
:1023000003F058BFB2FBF4F202FB00F34FF440328B
:10231000486892FAA2F200F44030B2FA82F2D04059
:102320000130400030BCB3FBF0F070470348704709
:10233000014870470038024000127A000024F4007F
:1023400010B5FFF7BDFF084BF0229B6892FAA2F28E
:1023500003F0F003B2FA82F2044C0549D340E35C87
:10236000D840086010BD00BF0038024084970008C4
:102370003402002008B5FFF7E3FF074B4FF4E052AB
:102380009B6892FAA2F203F4E053B2FA82F2034994
:10239000D340CB5CD84008BD003802408497000889
:1023A00008B5FFF7CDFF074B4FF460429B6892FAE8
:1023B000A2F203F46043B2FA82F20349D340CB5C49
:1023C000D84008BD0038024084970008704700BF1D
:1023D00003680122186A8A4020EA020010B41862D9
:1023E000196A094C0A43A3421A6207D01A685DF8B9
:1023F000044B42F0010200201A6070475A6C42F40C
:1024000000425A64F2E700BF00000140264A036818
:10241000904270B434D0B0F1804F20D0A2F57C420D
:1024200090421CD002F58062904218D002F5806282
:10243000904214D002F59A32904214D002F5806294
:10244000904210D002F5806290420CD08C680A68ED
:1024500003600123C462826270BC436170474A68B2
:1024600023F070031343CA688C68096823F440732F
:10247000134303600123C462816270BC43617047EF
:102480004A68CC688E680D68096923F070031343AD
:1024900023F44073234303600123C6628562016312
:1024A00070BC4361704700BF00000140C0B190F8AC
:1024B000393010B503F0FF02044663B12146022310
:1024C00051F8040B84F83930FFF7A0FF012384F89A
:1024D0003930002010BD80F83820FFF777FFEDE796
:1024E000012070472DE9F0410468C7682369C56978
:1024F000D0F810C08268416923F4405E4EEA0707B5
:10250000064680692761E3684CEA020223F4164319
:102510000A4323F00C032A431343E360636923F463
:1025200040730343B5F5004F6361514B39D09C4272
:1025300000F0818003F580639C427CD0FFF71AFF96
:1025400075684C4F00EB800000EB8000AD00B0FBE5
:10255000F5F5FFF70FFFA7FB053572686D0900EB76
:10256000800000EB800092002D01B0FBF2F8FFF735
:1025700001FF716800EB800000EB80008900B0FB78
:10258000F1F1A7FB01314909642202FB118212011A
:102590003232A7FB0223C3F343132B43A360BDE8EE
:1025A000F0819C4225D003F580639C4221D0FFF747
:1025B000E1FE75682F4F00EB800000EB80006D009E
:1025C000B0FBF5F5FFF7D6FE726800EB800000EB7C
:1025D00080005200B0FBF2F8FFF7CCFEA7FB0535F8
:1025E00071686D0900EB80002D0100EB800049004F
:1025F000C5E7FFF7D5FE75681E4F00EB800000EBC6
:1026000080006D00B0FBF5F5FFF7CAFE726800EBC5
:10261000800000EB80005200B0FBF2F8FFF7C0FE34
:10262000A7FB053571686D0900EB80002D0100EBFB
:1026300080004900A3E7FFF7B3FE75680D4F00EB7C
:10264000800000EB8000AD00B0FBF5F5FFF7A8FEC1
:10265000A7FB053572686D0900EB800092002D0123
:1026600000EB8000B0FBF2F8FFF79AFE81E700BFB5
:10267000001001401F85EB51704700BF50B338B5C3
:1026800090F83930044603F0FF02F3B122680223C8
:1026900084F83930D36823F40053D3602046FFF721
:1026A00021FF23681A6922F490421A615A6922F0C4
:1026B0002A025A61DA68002142F400520125DA60E8
:1026C0000846E16384F8395038BD80F83820FFF7B8
:1026D000D3FFDBE7012070471848836803F00C0341
:1026E000042B29D0082B0AD0154B144A15489268A0
:1026F0001549C2F30312825CD3400B6070474368F4
:10270000416813F4800F436818BF104801F03F027E
:102710000CBF0B49B0FBF2F1C3F3881308BFB1FB48
:10272000F2F101FB03F2054B5B68C3F30143013394
:102730005B00B2FBF3F3D8E7044BD6E70038024066
:102740000024F400949700083402002000127A005C
:10275000214B224A196C70B541F0805119641B6CF1
:1027600094B003F080530193019B136823F440431A
:1027700043F400431360136803F4404302930123BE
:10278000029A089300B1052309934FF4A871072317
:10279000042202244FF48006082508A813930E94FF
:1027A0000F96109511911292FFF7E0FA034610B1BF
:1027B000002014B070BD4FF4805221460F2503A8AD
:1027C00004940593079303950692FFF77BFCB0FAF8
:1027D00080F0400914B070BD003802400070004025
:1027E000234B244A196CF0B541F0805119641B6CDD
:1027F00095B003F080530193019B136823F4404389
:1028000043F400431360136803F4404302934FF012
:10281000030E1023002404210722012702254FF470
:10282000A87608A80C931093DDF808C0CDF820E036
:102830000B9709940F940E95119612911392FFF72E
:1028400095FA034610B1204615B0F0BD4FF4805202
:1028500029460F2403A80495059307930394069231
:10286000FFF730FCB0FA80F0400915B0F0BD00BFB2
:10287000003802400070004008B50120FFF768FFF3
:1028800000B108BDFFF764FF0028FAD1FFF7A8FFE9
:102890000028F6D1FEE700BF174A1848D2F8883062
:1028A00070B543F47003164CC2F888302368154E97
:1028B000154D002143F001032360A160236823F03C
:1028C000847323F480332360666023684FF00066CE
:1028D00023F480232360E16096600560FFF7A6F88B
:1028E000FFF7CAFF236A43F008032362236A23F039
:1028F0000803236270BD00BF00ED00E03402002039
:1029000000380240103000240024F4002DE9F84F74
:1029100044681C4DD0F808A090F919E0D0F81CC00C
:10292000C668D0F81090D0F81480A4010346281986
:10293000024600F1100742F8086F2951BEF1FF3F2F
:102940004FF00001C0F804A0C2F80490C2F808805B
:10295000C7F808C0C161C184C18510D093F918308F
:1029600001330CBF04230C237B60FFF787FE08B9FB
:10297000BDE8F88F0448BDE8F84F00F029BA0823F5
:102980007B60F2E758100020A4970008F0B50E46CF
:1029900085B0044608463D49154600F083FA3C4997
:1029A0000746284600F07EFA0146384600F068FAED
:1029B000411C074664D0374B98424AD003F58063E8
:1029C000984239D0A3F5504398420BD1324B1A6C40
:1029D00042F400321A641B6C03F400330293029A2F
:1029E000012363603046294900F028FA2846284927
:1029F00000F024FA721C03D03046012100F09EFC46
:102A00006B1C03D02846012100F098FC00234FF4F2
:102A100016523946A260E3602361636126766576CB
:102A20002046FFF773FF63681C491D4A9B01CB5882
:102A300093421BD005B0F0BD174B5A6C42F02002F8
:102A40005A645B6C03F020030393039B05236360CC
:102A5000C8E7114B5A6C42F010025A645B6C03F0E9
:102A6000100301930023019A6360BBE70D4B0E48EE
:102A70002146242201241C6001F089F905B0F0BD33
:102A80000A480B49C82200F097F9ABE7B49A00084E
:102A9000309A000800100140003802405810002011
:102AA00000440040541000208C130020BC97000804
:102AB000D897000810B4044B44680448196040F8E3
:102AC00024205DF8044B7047501000203010002087
:102AD0004368054A9B01D25813689B06FCD5506891
:102AE000C0F30800704700BF581000204368054A33
:102AF0009B01D25813681B06FCD5C1F30801516035
:102B0000704700BF581000204368034A9B01D35808
:102B10001868C0F3401070475810002038B50023E3
:102B2000036043600A782F2A044601D0204638BD4E
:102B30004A78002AFAD0481C20604D782F2D13D0F7
:102B400085B1034600E06AB15D1A013323601A784B
:102B50002F2AF8D129460133236000F0C5FC6060BC
:102B6000204638BD2946F8E719460346F3E700BF7B
:102B700000687047436843B110B50446184600F03A
:102B8000D1FC012803D1606810BD002070470020EF
:102B900010BD00BF406830B108B500F0C3FCB0FA0A
:102BA00080F0400908BD704743684BB110B504463A
:102BB000184600F0B7FC28B9606818B1043810BD99
:102BC00000207047002010BD4068003018BF012071
:102BD000704700BF10B5064B83600023036043605D
:102BE000044600F059FA034B20461C6010BD00BF9C
:102BF000A08601005812002000F05EB8A0F15C0031
:102C0000FFF7FABF00F05CB8A0F15C00FFF7FABF75
:102C100038B504461D4600F023F8294604F15C004F
:102C200000F08CF8054B03F1080103F12002543346
:102C30002160E2652366204638BD00BF7898000811
:102C400001EB4101C9004318DA6B9B6A2AB11BB141
:102C500001442C31184610477047002BFCD0184710
:102C600038B50446104B0360251D00234FF4165061
:102C7000A06563602846A360E36023616361A3618C
:102C800023776377236284F8243084F82530A362A5
:102C9000E36323646365FFF779FE28462246034910
:102CA000FFF708FF204638BDE0980008412C0008D7
:102CB0000430FFF729BF00BF0430FFF709BF00BF92
:102CC00010B504300C46FFF711FF204610BD00BFC1
:102CD00000207047F8B58E18B1420F460ED0054659
:102CE0000C4601E0A64207D02B6814F8011B5B6A72
:102CF000284698470130F5D1E01BF8BD0C46FBE7AC
:102D0000F8B58E18B1420F460ED005460C4603E0CA
:102D100004F8010BA64205D02B6828469B6A984709
:102D2000431CF5D1E01BF8BD0C46FBE700207047C3
:102D300000207047002070470020704710B584B015
:102D4000044600F061FB0B4B0B4903F10800002225
:102D50003C3384E80900626101A8224602F050FC7D
:102D6000064901A800F0AEFE6061FEF731FE204684
:102D700004B010BDE8980008749700082C9900086A
:102D800010B5074B03F108023C33044680E80C0001
:102D9000406900F09BFC204600F04AFB204610BD35
:102DA000E898000810B50446406900F045FD6069E8
:102DB000BDE81040FEF710BE10B40C4613460146A5
:102DC000224602485DF8044B00F002B83099000832
:102DD0000FB400B5064B83B004AA1B6852F8041B5D
:102DE000D868019201F0B0F9012000F009FC00BFA1
:102DF0009802002038B50D46044600F09FF80135D2
:102E000011D094F9003001330ED06368E2681B04DE
:102E100020461360012100F0ABF820460021BDE8F8
:102E2000384000F0A1B838BD024803493422FFF70A
:102E3000C3FFEAE7A8960008C0960008431C10B537
:102E4000044619D091F90030581C04D10FE011F953
:102E50000C3F5A1C0BD09C42F9D12046896800F0E7
:102E60003FFA20460021BDE8104000F067BA034851
:102E7000BDE81040FFF7ACBF10BD00BF649900086B
:102E800088420AD0421C09D0013106D008B5044856
:102E9000FFF79EFF4FF0FF3008BD704708467047B0
:102EA00078990008421C0FD008B591F900305A1CDF
:102EB00004D10AE011F90C3F5A1C06D09842F9D10E
:102EC0004868411C01D008BD70470348FFF780FFE8
:102ED0004FF0FF30F7E700BF8C990008014800F081
:102EE00023BB00BFE099000838B5054600F05CFA46
:102EF000044600F059FA001BA842FAD338BD00BFBF
:102F00004FF47A7303FB00F0FFF7EEBF431C10B5DC
:102F1000044608D02046002100F0E2F904F00F0436
:102F20000120A04010BD034803492722FFF744FFBA
:102F3000F0E700BFFC9A0008109B000870B505463A
:102F40004B1C0C4629700DD0C1F3031000F052F950
:102F500006462046FFF7DAFF06F1100318366860D0
:102F6000AB60EE6070BD00BF90F9000000F0E6B904
:102F700038B5054690F90000431C0C460BD0012CD7
:102F800004D00021BDE8384000F0AAB92146BDE8D0
:102F9000384000F0A5B9044804494622FFF70CFF69
:102FA00095F90000EBE700BFA8960008109B000809
:102FB000F8B5174B4A1E9A420E46054621D8154CC5
:102FC0002968216048F2010301E0013B02D08A69CF
:102FD0009207FAD40F4F666000234FF480423846C0
:102FE0006361A360E3612362E360A3612261FEF792
:102FF00049FE6B6823B13A68136843F48063136039
:10300000F8BD054805497722FFF7D6FED7E700BF90
:103010007F1A0600B0130020789B0008949B0008DC
:10302000184B196848F2010301E0013B02D08A699C
:103030009207FAD40368144A934219D0134A934270
:103040000CD0134A934208D1124B1A6A42F4000280
:103050001A621A6A22F400021A6270470D4B1A6A49
:1030600042F480021A621A6A22F480021A627047DD
:10307000084B1A6A42F400121A621A6A22F4001209
:103080001A627047B01300200054004000580040FE
:10309000005C004000380240F0B5044685B00846A8
:1030A0000E4648491546FFF7FDFE474907462846A4
:1030B000FFF7F8FE01463846FFF7E2FE431C2060AA
:1030C00078D0424B984236D0414B984211D0414B78
:1030D000984203D1404B1A68002A4ED02046FFF791
:1030E0009FFF20463D49FFF763FF0023636005B063
:1030F000F0BD3B4B1A68002AF0D13A4A0121196011
:10310000136C304943F480031364136C03F480039D
:1031100002933046029BFFF791FE28462A49FFF7AB
:103120008DFE3046032100F009F92846032100F006
:1031300005F92068CBE72C4B1A68002ACED1294A22
:1031400001211960136C1F4943F400131364136CBD
:1031500003F4001301933046019BFFF76FFE2846EE
:103160001949FFF76BFE3046032100F0E7F82846C7
:10317000032100F0E3F82068A6E71A4A012119604C
:10318000136C104943F400031364136C03F400033D
:1031900003933046039BFFF751FE28460A49FFF789
:1031A0004DFE3046032100F0C9F82846032100F007
:1031B000C5F893E70D480E493B22FFF7FDFD206857
:1031C0007FE700BFE8990008789A000800540040A3
:1031D00000580040005C004068120020A0860100FA
:1031E0006C1200200038024064120020FC9B000892
:1031F000949B000800B587B0072859D8DFE800F095
:1032000012202E3C4A5858042D4B2E481A6B42F07F
:1032100080021A631B6B03F080030593059B07B0C4
:103220005DF804FB264B28481A6B42F001021A6332
:103230001B6B03F001030093009B07B05DF804FBD8
:103240001F4B22481A6B42F002021A631B6B03F0F9
:1032500002030193019B07B05DF804FB184B1C4867
:103260001A6B42F004021A631B6B03F0040302930F
:10327000029B07B05DF804FB114B16481A6B42F035
:1032800008021A631B6B03F008030393039B07B048
:103290005DF804FB0A4B10481A6B42F010021A63E7
:1032A0001B6B03F010030493049B07B05DF804FB51
:1032B0000A48FFF78DFD002007B05DF804FB00BF52
:1032C00000380240001C024000000240000402409E
:1032D00000080240000C024000100240489C000818
:1032E00030B5431C87B005460C461BD0C5F3031010
:1032F000FFF780FF05F00F0504F00F010C4A0123D2
:10330000AB40019352F821500295C4F302120323FB
:10331000C4F3C31401A9039205940493FEF7C2FBFE
:1033200007B030BD034804498122FFF745FDDDE7C2
:10333000149C0008FC9A00086C9C000838B5431CDB
:1033400004460D4614D0C4F30310FFF753FF04F0F6
:103350000F04C26864000323A34022EA0303C3608E
:10336000022DC3688CBF0025A5401D43C56038BD34
:1033700002480349A622FFF71FFDE4E7FC9A000874
:103380006C9C0008054B186800B17047044A054959
:10339000116001221A60FEF73DB900BFAC12002097
:1033A00070120020000C004008B5064B186830B9B8
:1033B000054A0649116001221A60FEF72BF9034BFA
:1033C000586A08BDAC12002070120020000C0040AA
:1033D000034B1B685863DA6842F00202DA607047F8
:1033E00070120020034B1A68D36823F00203D360E5
:1033F000704700BF70120020024B1B686FF0020282
:103400001A6170477012002010B5074B0446002265
:1034100040F8043B00F054F8044B03F10802343345
:1034200084E80C00204610BD50970008D09C00088E
:1034300010B5074B044603F108023433226040F80C
:10344000043F00F007F82046FEF768F9204610BD5B
:10345000D09C00088368094A026053B1084B1A687F
:10346000824201D106E01A4653688342FBD1436889
:103470005360704742681A60704700BF189D00088B
:10348000B012002083680C4A10B50446026053B1A4
:103490000A4B1A68904201D10AE01A4653689C42CE
:1034A000FBD163685360204600F064F8204610BDED
:1034B00042681A60F7E700BF189D0008B0120020AC
:1034C00010B40023064C027381600460436019B19C
:1034D000044B1A68426018605DF8044B704700BFE7
:1034E000189D0008B01200200D4B70B51C680646F0
:1034F0000D4614B912E0646884B1A36831462A46C7
:103500001846002BF7D002F020F90028F3D1A0686C
:1035100002F013F9A842EED1204670BD002070BD24
:10352000B0120020007B7047036870B5DB68054669
:1035300098476B685B6883B12A681C685368984732
:10354000201A00286A680DDC50681168836853608F
:103550000029F0D040688847EBE72B68BDE8704051
:103560009B6818472B6852681B691068BDE870405B
:10357000184700BF00F0F4BB10B5002814BF044684
:103580000124204600F0E4FB30B900F00FF808B940
:1035900000F014F88047F4E710BDFFF7EBBF0346D7
:1035A0000846194600F018B8FFF7E6BF024B186846
:1035B000BFF35F8F704700BFB412002008B506202C
:1035C00002F002F80120FEF7F1F901460020024660
:1035D000034603F02BB9000038B5054604480C46F5
:1035E000134620B102202946224603F01FF938BDB8
:1035F0002D680008014B1868704700BF9802002032
:1036000008B5074B044613B1002103F06BF9054BD5
:103610001868836A03B198472046FEF7C7F900BFD0
:10362000E5680008849D000870B505460C4609B998
:10363000002070BD18B183690BB900F083F9204BED
:103640009C4201D16C6808E01E4B9C4201D1AC68E1
:1036500003E01D4B9C4208BFEC68B4F90C30002B12
:10366000E6D02846214600F039F8236B064633B1F0
:103670002846216A98470028B8BF4FF0FF36A38933
:103680001B0603D52846216900F094FB616B41B10C
:1036900004F14403994202D0284600F08BFB00233A
:1036A0006363A16C21B1284600F084FB0023A3646E
:1036B00000F0B2F90023A38100F0AFF9304670BDED
:1036C000209D0008409D0008609D0008024B0146B7
:1036D0001868FFF7A9BF00BF980200208A892DE96A
:1036E000F041054610070C4657D44B68002B02DC0E
:1036F0000B6C002B18DDE66AB6B102F48052002391
:1037000092B22F682B600AB1626D10E0216A2846E0
:103710000123B047411C024609D12B683BB11D2B48
:1037200001D0162B47D12F600020BDE8F081A3897E
:103730005B0705D56368D21A636B0BB1236CD21A91
:10374000E66A216A00232846B047461CA38905D1B2
:103750002A681AB11D2A01D0162A19D100226260E6
:10376000D9042269226004D5421C01D12B6803B917
:103770006065616B2F600029D6D004F14403994243
:1037800002D0284600F016FB00206063BDE8F081FF
:1037900043F04003A381BDE8F0810F69002FC3D03F
:1037A00093070E6808BF4B690F6018BF0023C7EB73
:1037B00006088B6012E0A38943F04003A3814FF019
:1037C000FF30BDE8F0812846216AA66A3A464346A2
:1037D000B0470028EFDD0744C0EB0808B8F1000F40
:1037E000F1DCA1E738B50B6905460C46DBB118B131
:1037F00083690BB900F0A6F80C4B9C4201D16C68B0
:1038000008E00B4B9C4201D1AC6803E0094B9C42A1
:1038100008BFEC68B4F90C302BB128462146BDE84E
:103820003840FFF75BBF002038BD00BF209D000877
:10383000409D0008609D0008014620B9044B0549E1
:10384000186800F0F3B9044B1868FFF7CBBF00BF4E
:10385000849D0008E53700089802002038B50C4622
:10386000054618B183690BB900F06CF80E4B9C4209
:1038700001D16C6808E00D4B9C4201D1AC6803E0BB
:103880000B4B9C4208BFEC686368013B002B6360F4
:1038900005DA28462146BDE8384001F041BD2368DD
:1038A0005A1C2260187838BD209D0008409D0008F1
:1038B000609D0008024B01461868FFF7CFBF00BFAC
:1038C00098020020014900F0B1B900BFE5370008B7
:1038D000002310B504460360436083608181436622
:1038E000C28103614361836119465C30082200F0A4
:1038F00059FA054B6362054BA362054BE362054B26
:103900002462236310BD00BF9D560008C356000803
:10391000FB5600081F57000870B568234D1E5D4315
:103920000E4605F1740100F089FA044640B1002109
:1039300080E842000C30A06005F1680200F032FA25
:10394000204670BD836910B5044633BB8364C364ED
:103950000365124B124A1B688262984204BF01231E
:10396000836100F01FF86060204600F01BF8A06043
:10397000204600F017F80421E06000226068FFF79D
:10398000A7FFA06809210122FFF7A2FFE06812212A
:103990000222FFF79DFF0123A36110BD849D000853
:1039A000C5380008F8B51B4B1E68B369074613B944
:1039B0003046FFF7C7FF4836B4687368013B04D44C
:1039C000B4F90C5075B16834F8E733682BB9384650
:1039D0000421FFF7A1FF306008B13668ECE70C2343
:1039E0003B60F8BD4FF6FF73E3810123A381656659
:1039F0002560A560656025616561A56104F15C00D5
:103A00002946082200F0CEF96563A563A564E56444
:103A10002046F8BD849D00087047704738B5074BB5
:103A2000074CE41AA4101D4624B1013C55F824307B
:103A30009847F9E7BDE8384005F0F4BDE002002002
:103A4000E4020020F7B50F46114601AA054603F02F
:103A500017FE064608B9002029E02846FFF7A2FF16
:103A600004460028F7D028463946019A4FF4DB7304
:103A700001F01CFB002806DA0025FFF7CDFFA58129
:103A8000FFF7CBFFE7E70B4B63620B4BA3620B4BDC
:103A9000E3620B4B2363F305E081A681246205D525
:103AA000284621460022022300F016F8204603B0E3
:103AB000F0BD00BF9D560008C3560008FB56000825
:103AC0001F5700080A460349034608681946FFF7CE
:103AD000B9BF00BF9802002000F000B82DE9F843FC
:103AE0000C4690461E46054618B183690BB9FFF790
:103AF00029FF3D4B9C4201D16C6808E03B4B9C4246
:103B000001D1AC6803E03A4B9C4208BFEC68A38942
:103B100003F48473B3F5847F03D128462146FFF76D
:103B200061FEE76A0FB91D232BE0012E04D0022E9F
:103B30002BD056B3162324E028462146FFF752FE29
:103B4000A28902F4805292B20AB1606D05E0216A46
:103B500028463346B847411C14D0A3895A0706D5D6
:103B60006368C01A636B4BB1236CC01A06E01B0775
:103B700004D5236813B122699B1A18448044002697
:103B800003E02B604FF0FF392BE023691BB9284677
:103B9000214600F08FF828462146FFF723FE814694
:103BA0000028EFD12846216A42463346B847013003
:103BB000E8D0616B41B104F14403994202D0284638
:103BC00000F0F8F80023636323692360A3890021D0
:103BD00023F402636160A38104F15C00082200F019
:103BE000E1F84846BDE8F883209D0008409D0008A4
:103BF000609D00082DE9F041884600F14804002648
:103C00008CB1A5686768013F0BD4AB89012B06D93D
:103C1000B5F90E30013302D02846C0470643683557
:103C2000F1E72468ECE73046BDE8F0812DE9F84380
:103C30008046894600F14804002694B1A56867686B
:103C4000013F0CD4AB89012B07D9B5F90E300133F4
:103C500003D040462946C84706436835F0E7246844
:103C6000EBE73046BDE8F88370B50E4B0E4CE41A16
:103C7000A41000251E46A54204D056F825309847CA
:103C80000135F8E705F0C8FC084C094BE41AA4100C
:103C900000251E46A54204D056F825309847013528
:103CA000F8E770BDD8020020D8020020E002002012
:103CB000D8020020F0B58B899D0791B006460C46CE
:103CC00026D4B1F90E10002909DAA38913F0800F68
:103CD0004FF0000514BF40274FF480670DE001AAA4
:103CE00003F006FD0028F0DB029D05F47045A5F504
:103CF00000514D424D414FF480673046394600F047
:103D00009DF860B9A3899A051DD443F00203A381ED
:103D100004F14703236023610123636113E00B4B2C
:103D2000B362A389206043F08003A38120616761AF
:103D30004DB13046B4F90E1003F0F8FF18B1A38965
:103D400043F00103A38111B0F0BD00BFC5380008E6
:103D5000024B0146186800F071B800BF98020020BD
:103D6000024B0146186800F025B800BF98020020F9
:103D700010B5C9B202449042034606D01C788C426A
:103D800000F10100F7D1184610BD002010BD10B59C
:103D9000431E0A44914204D011F8014B03F8014F2D
:103DA000F8E710BD02440346934202D003F8011B1A
:103DB000FAE7704730B500293DD051F8042C0B1FAD
:103DC0001D49002AB8BF9B180A680C4612B95A60F0
:103DD0000B6030BD93420DD219685818904201BF54
:103DE0005A5852181A6042685A60236030BD99428E
:103DF00003D80A4651680029F9D1146815199D4263
:103E00000AD11B682344D0188842136013D1086874
:103E1000034413604B680DE002D90C23036030BDEE
:103E20001C681819884204BF08684968596004BFB3
:103E300000191860536030BDBC12002070B5CC1C56
:103E400024F0030408340C2C38BF0C24002C064644
:103E500003DA0C233360002070BD8C42F9D3204A72
:103E6000136810461946A1B10A68121B0ED40B2A1A
:103E700003D90A608B188C501FE08B420DBF5A6823
:103E80004A685A60026018BF0B4616E00B46496844
:103E9000E9E7144D2B681BB9304601F097FA28600A
:103EA0003046214601F092FA421C0346D1D0C51C8F
:103EB00025F0030585420AD11C6003F10B001A1D91
:103EC00020F00700821A0AD05142995070BD304646
:103ED000E91A01F07BFA0130BBD02B46ECE770BD4C
:103EE000BC120020B81200209368013B002B10B5D3
:103EF000936009DA9469A34202DBCBB20A2B03D1A7
:103F0000BDE8104002F0C0BB1368581C1060197067
:103F1000C8B210BDF8B506460F461446D518AC42D7
:103F200008D0304614F8011B3A46FFF7DDFF431C6A
:103F3000F5D100E00020F8BD2DE9F0439DB00D461D
:103F400090460393064618B183690BB9FFF7FAFC54
:103F5000754B9D4201D1756808E0744B9D4201D1BB
:103F6000B56803E0724B9D4208BFF568AB891C073A
:103F70000AD52B6943B10023099320238DF82930FA
:103F800030238DF82A3041E03046294602F0E2FB2A
:103F90000028F0D04FF0FF30C2E0039A111D1268E4
:103FA0000391002ABBBF524243F0020307920792DB
:103FB000B8BF0493013423782E2B7BD0DFF88081A7
:103FC000217840460322FFF7D3FE38B1049AC8EBAC
:103FD0000000402383401343049301342178554863
:103FE0008DF82810062204F10108FFF7C1FE002811
:103FF00000F08580504B002B78D1039B073323F0D2
:10400000070308330393099B3B44099343461C462B
:1040100013F8012B1AB9B4EB08090ED002E0252AD7
:10402000F5D1F8E73046294642464B46FFF772FF86
:10403000013070D0099B4B4409932378002B6AD040
:1040400000234FF0FF3204930793059206938DF8F7
:1040500053301A9304F101084446DFF8E8902178C0
:1040600048460522FFF784FE08F10108049B30B1A1
:10407000C9EB00000122824013430493ECE7D80609
:1040800044BF20228DF85320190744BF2B228DF8FE
:10409000532022782A2A80D0079923461C460133D0
:1040A0002278303A092A03D80A2000FB0121F5E7DB
:1040B000079180E763782A2B0AD1039B1A1D1B689E
:1040C0000392002BB8BF4FF0FF330234059375E71E
:1040D000611C00220C4601312378303B092B03D8A8
:1040E0000A2000FB0232F5E7059267E703AB009375
:1040F000304604A92A46114B00F0C4F807E003AB90
:104100000093304604A92A460C4B00F077FB421C72
:1041100007467FF478AFAB895B063FF53BAF099864
:104120001DB0BDE8F08300BF209D0008409D000841
:10413000609D0008929D000885420008153F000818
:104140008E9D0008889D000830B51346044A054638
:104150000C46106829462246BDE83040FFF7ECBE09
:10416000980200202DE9F04788B0002B149F129987
:10417000109EDDF84CA01D46B8BF05F1004327F0A6
:104180002007B6BF1D4600232D231446B8BF144692
:10419000462F0B7003D0452F03D1013601E00323D6
:1041A00000E002238DE8480406AB039307AB0493B9
:1041B00022462B4602F0A0FC472F804602D1119BDD
:1041C000DB0726D5462F08EB060911D198F80030F9
:1041D000302B0AD1204629460022002305F042F95F
:1041E00018B9C6F10106CAF80060DAF8003099443F
:1041F000204629460022002305F034F908B1CDF805
:104200001C90079B4B4504D25A1C079230221A700F
:10421000F7E7079B159AC8EB03034046136008B005
:10422000BDE8F08773B503460029B8BF494203F8DB
:10423000022BB4BF2D222B220929427019DD0DF16A
:10424000070426460A2291FBF2F502FB15113031D4
:10425000092D04F8011D2946F4DC3031651E04F8EF
:10426000011CB5421A460AD215F8012B03F8012B9E
:10427000F7E730241A46214402F8024B5970101A0D
:1042800002B070BD2DE9F04F91B08B4615461E4629
:104290001A9F044603F05AFDD0F800A0504601F0E2
:1042A0004CFA00230E933B680990073323F0070371
:1042B00003F108029BF818803A60D3E90023CBE9A8
:1042C0001223DBE9120101F057F80128DBE91201A2
:1042D00019D10022002305F0CFF810B12D238BF85F
:1042E0004330A04BA04FB8F1470F88BF1F460323B0
:1042F000CBF81030DBF8003023F00403CBF80030AB
:104300004FF00009A1E001F037F8DBF8003048B9C0
:10431000964A974FB8F1470F88BF17460322CBF84C
:104320001020E9E7DBF804209BED127B571C8DED94
:104330000A7B01D1062209E0B8F1670F02D0B8F17B
:10434000470F05D1002A40F0C7810122CBF8042095
:10435000DBF80420CDF8108043F480638DE80C0076
:10436000CBF800300DF1330302930DAB03930EAB8A
:104370000593002306932046DDE90A23FFF7F2FEAA
:1043800008F0DF03472B07460AD10D9BD81C03DB3F
:10439000DBF80420934237DDA8F102085FFA88F8C1
:1043A000B8F1650F0D9915D8013942460BF150004F
:1043B0000D91FFF737FF0E9A8318012A8146CBF83B
:1043C000103003DCDBF80020D10738D50133CBF8FF
:1043D000103034E0B8F1660F18D10029DBF8043052
:1043E00009DDCBF810101BB9DBF80020D20721D56E
:1043F00001330B441CE01BB9DBF80020D00701D5CA
:10440000023315E0012313E04FF067080D9B0E9A6D
:10441000934207DBDBF80020CBF81030D10709D539
:10442000013305E0002BD4BFC3F102030123134481
:10443000CBF810300D9BCBF858304FF000099DF8A9
:10444000333013B12D238BF8433000962046594664
:104450000FAA2B4600F05CF9013002D14FF0FF307B
:1044600052E1DBF800305A0505D4204629463A4689
:10447000DBF8103008E1B8F1650F40F2D080DBE9DD
:1044800012010022002304F0EDFF50B3204629461C
:10449000384A0123B0470130E0D00E9B0D9A9A4272
:1044A00009DBDBF80030D80705D4DBF800309F07C4
:1044B00000F1108107E1204629465246099BB0478A
:1044C0000130CBD000270E9B013B9F42EDDA204606
:1044D00029460BF11A020123B0470130BED0013743
:1044E000F1E70D9B002B29DC20462946214A0123B8
:1044F000B0470130B2D00D9B2BB90E9B1BB9DBF836
:104500000030D907D1D5204629465246099BB047ED
:104510000130A3D04FF000080D9B5B429845204628
:10452000294608DA0BF11A020123B047013095D071
:1045300008F10108F0E73A460E9BA5E0DBF85820A9
:104540000E9B9A42A8BF1A46002A914602DC4FF001
:1045500000081CE0204629463A464B46B047013049
:10456000F5D17BE79D9D0008999D0008A59D000859
:10457000A19D0008F29D0008204629460BF11A0271
:104580000123B04701303FF469AF08F10108DBF8BF
:104590005830B9F1000FACBFC9EB03021A46904581
:1045A000EADB07EB03080D9A0E9B9A4210DBDBF85F
:1045B0000030DA070CD40E9A1744C8EB07030D9F9E
:1045C000D21B9342A8BF1346002B1F4608DC0EE007
:1045D000204629465246099BB0470130EBD13DE7C2
:1045E000204629464246B04701303FF437AF4FF0EE
:1045F00000080AE0204629460BF11A020123B047C1
:1046000001303FF42BAF08F101080D9A0E9B002FEB
:10461000A3EB0203A8BFDB1B9845EBDB45E70E9A33
:10462000012A01DCDB0736D5204629463A4601231C
:10463000B04701303FF412AF204629465246099B4D
:10464000B04701303FF40AAFDBE91201002200233A
:1046500004F008FFE8B90E9B204629467A1C013B6E
:104660001DE0204629460BF11A020123B047013014
:104670003FF4F4AE01370E9B013B9F42F1DB204635
:1046800029460BF150024B46B04701307FF40DAF85
:10469000E4E60027EFE7204629463A460123B047E3
:1046A0000130ECD1DAE6204629460BF1190201234C
:1046B000B04701303FF4D2AE0137DBF80C300F9A2F
:1046C0009B1A9F42EFDBDBF80C000F9B9842B8BFB0
:1046D000184619E00027F0E743F480638DE80C00EA
:1046E000CBF800300DF1330302930DAB03930EAB07
:1046F000059300230693CDF810802046DDE90A23B8
:10470000FFF730FD074640E611B0BDE8F08F00BF6F
:104710002DE9F84391461F468A680B69DDF8208031
:104720009342B8BF1346C9F8003091F843200646BB
:104730000C4612B10133C9F800302368990642BF14
:10474000D9F800300233C9F80030256815F00605A5
:104750001CD094F843302268003318BF012392061E
:104760001FD5E1185A1C302081F84300224494F8E8
:10477000451082F84310023313E03046394604F105
:1047800019020123C047013007D00135E368D9F889
:1047900000209B1A9D42F0DBDBE74FF0FF30BDE8C5
:1047A000F8833046394604F14302C0470130F4D063
:1047B0002268D9F80050E36802F00602042A08BF14
:1047C0005D1B2269A3680CBF25EAE57500259342AD
:1047D000C4BF9B1AED184FF00009A9450ADA30460C
:1047E000394604F11A020123C0470130D5D009F13E
:1047F0000109F2E70020BDE8F88300002DE9FF4140
:104800000C461746227E6E2A984606460A9B01F100
:10481000430100F0AF8012D8632A23D00AD8002ABF
:1048200000F0BC80582A40F0CB8084F84520DFF8A7
:1048300004E257E0642A1ED0692A1CD0C0E0732A23
:1048400000F0B08009D86F2A2ED0702A40F0B880CE
:10485000226842F0200222603FE0752A24D0782AA4
:104860003BD0ADE01A68111D1960136884F842301E
:1048700004F14205A8E020681A6810F0800F02D009
:10488000101D186008E010F0400F02F104001860DD
:1048900002D0B2F9003000E01368002B3EDA2D227E
:1048A0005B4284F8432039E020681A6810F0800FDA
:1048B00002D0101D186007E010F0400F02F1040054
:1048C000186001D0138800E01368227EDFF864E1ED
:1048D0006F2A0CBF08220A221CE07822DFF858E178
:1048E00084F845202268186812F0800F00F1040552
:1048F0001D6003D1550601D5038800E00368D00789
:1049000044BF42F0200222601BB9226822F020023C
:1049100022601022002084F8430002E0DFF814E156
:104920000A226568A560002DA2BF206820F004005F
:10493000206003B965B10D46B3FBF2F002FB103302
:104940001EF8033005F8013D03460028F4D100E0CD
:104950000D46082A0BD12368DA0708D52369626857
:104960009A42DEBF302305F8013C05F1FF35491BB3
:1049700021612EE025681A68606915F0800F03D068
:10498000151D1D60136808E015F0400F02F10405C5
:104990001D60136801D0188000E0186000232361B7
:1049A0000D4616E01A68111D1960156862682846E0
:1049B0000021FFF7DDF908B1401B6060636804E087
:1049C00004F1420584F8422001232361002384F886
:1049D0004330CDF800803046214603AA3B46FFF71E
:1049E00097FE013002D14FF0FF301FE030463946CC
:1049F0002A462369C0470130F5D023689B0705D4B8
:104A0000E068039B9842B8BF18460FE00025E368B2
:104A1000039A9B1A9D42F3DA3046394604F1190293
:104A20000123C0470130DED00135F0E704B0BDE816
:104A3000F08100BFA99D0008BA9D00082DE9F04F44
:104A400099468B6815465A1EB2F5AE7F81BF6FF44A
:104A5000AE7203EB020C40F25D138B600B680F46E5
:104A600043F4F06387B047F81C3B4FF0000B064659
:104A70000C4698BF4FF0000CB8465A46CDF80CB023
:104A8000CDF808B0DA46CDF804B0A168002900F0EE
:104A9000EC802B681B78492B70D016D8392B0DD899
:104AA000312B40D22D2B46D002D82B2B43D0DCE02B
:104AB0002E2B00F09280302B23D0D6E0452B00F037
:104AC0009580462B77D0412B0CE0652B00F08E8033
:104AD0000AD8542B75D002D84E2B34D0C5E0592BB0
:104AE00075D0612B46D0C0E06E2B2CD004D8662B3D
:104AF00061D0692B42D0B8E0742B62D0792B66D09C
:104B0000B3E0206810F4807F0DD020F0800020609A
:104B10000AF1010ABCF1000F00F08A8001310CF1AA
:104B2000FF3CA16084E012EB0B0F40F09E802168F7
:104B300021F4C07105E02168080640F1968021F05B
:104B40008001216070E06AB9BAF1000F0CD12168D0
:104B500001F4E060B0F5E06F06D121F4F06121606E
:104B6000012261E0022A5ED0BBF1010F1ED0BBF131
:104B7000040F1AE0012A78D1022255E0BBF1000FA0
:104B80000ED1BAF1000F73D1216801F4E060B0F5E5
:104B9000E06F71D121F4F06121604FF0010B43E02F
:104BA000BBF1030F02D0BBF1050F5ED10BF1010B7E
:104BB0005FFA8BFB38E0BBF1020F56D14FF0030BCD
:104BC00032E0BBF1060F50D14FF0070B2CE0BBF1E8
:104BD000070F4AD14FF0080B26E02168880544D51D
:104BE00021F420712160CDF804A01DE0216801F4BA
:104BF000A060B0F5806F04D0480536D5BAF1000F3B
:104C00003AD088055CBF0198CDF80C8021F4F061A2
:104C100058BFC0EB0A0041F4C07158BF0290216038
:104C20004FF0000A00E0032288F8003008F1010884
:104C3000A368013BA3602369013323616B68013BD7
:104C4000002B6B6003DD2B6801332B601DE7D4F86C
:104C50008031059230462946CDF810C09847DDF8DE
:104C600010C0059A00283FF410AFBAF1000F03D02E
:104C7000236823F480732360013A012A0ED8B845D3
:104C80000AD9D4F87C3118F8011D30462A469847D5
:104C90002369013B2361F2E70125AEE00BF1FF330D
:104CA000062B22D8BBF1020F12D9ABF1030B5FFA2E
:104CB0008BFBCBEB080BD84517D0D4F87C3118F818
:104CC000011D30462A4698472369013B2361F2E7DC
:104CD000B845E1D9D4F87C3118F8011D30462A4690
:104CE00098472369013B2361F2E72368DA052CD555
:104CF0005B050CD5B845CFD9D4F87C3118F8011D27
:104D000030462A4698472369013B2361F2E718F8A9
:104D1000011C2369652903F1FF3308F1FF3B23617F
:104D20000DD045290BD0D4F87C3130462A4698471F
:104D3000236918F8021C013BA8F1020B2361D4F887
:104D40007C3130462A469847D846256815F010052C
:104D500052D188F80050236803F4C063B3F5806F24
:104D600005D1019BC3EB0A035A426BB916E0029BC3
:104D7000A3B1039B2A46591C30460A2301F046FB87
:104D8000029BDDF80C80C21A04F26F13984528BF0D
:104D900004F5B77840461B4900F032FC30463946EE
:104DA000002200F021FD2268D9F8003012F0020F35
:104DB00006460F4603D01A1DC9F8002006E012F07F
:104DC000040F03F10402C9F8002003D01B68C3E9F3
:104DD00000670DE0D3F8008000F0CEFA10B900F0C3
:104DE000C7FB03E03046394604F0B6FBC8F80000C4
:104DF000E3680133E36000E00025284607B0BDE822
:104E0000F08F00BFCB9D00082DE9F04115468A6860
:104E100080460C4632B98A69002A0CBF01224FF045
:104E2000FF328A602268D1065FBF1A68111D1960BF
:104E300017680026A06900BB2368DA065EBF2B68EE
:104E40001B783B702A686B6802F101022A60A26835
:104E500003F1FF3302F1FF326B6006F1010658BF28
:104E60000137A260EAB1002BE4DCD4F8803140467F
:104E7000294698470028DDD013E0012807D12B6888
:104E800062691B78D35C002BD6D1C6B109E0022839
:104E900007D12B680B4A1B78126813445B781B07F9
:104EA000CAD5236813F0100305D1E2680132E2602D
:104EB000A26902B13B7023691E4426610020BDE84F
:104EC000F08100BF9C0200202DE9F04F9A46734B01
:104ED0000C468346164693E8070087B003AB83E889
:104EE00007006F4BA1696F4A032918BF1A46A368D0
:104EF00000925A1EB2F5AE7F81BF6FF4AE7503EB20
:104F0000050840F25D13A360236804F11C0943F413
:104F10005063236098BF4FF000084F46002332686B
:104F2000019303A951F8230011780222FEF720FF14
:104F3000019B002836D0012B0BD162682AB90822C8
:104F40006260226842F400722260226822F4A06249
:104F50000BE0022B0AD1226802F4C061B1F5007F98
:104F600020D11021616042F480722260A268511E3B
:104F7000A160BAB13268511C316012783A7072681F
:104F8000013A002A07F1010572600ADCD4F8802199
:104F90000193584631469047002840D12F46019B47
:104FA00000E02F460133032BB9D163680BB90A2304
:104FB000636063683C496069C91A00F017FA3D46AE
:104FC0000027A36863B3316860690A78805C38B3EE
:104FD000302A22680AD1100508D50137B8F1000F30
:104FE0000AD0013308F1FF38A36005E022F4106213
:104FF00022600B782B7001357368013B002B7360C6
:1050000003DD33680133336005E0D4F8803158465E
:105010003146984720B9A368013BA360D1E7002738
:105020002368D9050DD54D4509D915F8011CD4F8CB
:105030007C3158463246984705F1FF3845464D4584
:1050400027D0226812F010021BD12A706368009EDC
:1050500058464946B0472268DAF8003012F0200F6F
:1050600007D1D20705D51A1DCAF800201B68188081
:1050700004E01A1DCAF800201B681860E3680133B9
:10508000E360C9EB05053D4427693D4425610020E7
:1050900000E0012007B0BDE8F08F00BFD09D000800
:1050A000196500080D640008EC9D000838B5074C30
:1050B000054600202060084611461A46FCF744FBCE
:1050C000431C02D1236803B12B6038BDEC130020D0
:1050D0000FB40A4B13B51C6824B1A36913B9204659
:1050E000FEF730FC05AB2046A168049A0193FEF759
:1050F00023FF02B0BDE8104004B0704798020020C2
:1051000070B50E46054618B183690BB9FEF71AFC57
:10511000AB69AC6813B92846FEF714FC314B9C42CE
:1051200001D16C6808E0304B9C4201D1AC6803E0CF
:105130002E4B9C4208BFEC68A389190701D523694F
:1051400083B92846214601F005FB58B14FF0FF30E6
:1051500070BD002B0EDB236816F8012C1A70236833
:1051600001332360A36816F8012B013BA360002ADA
:10517000EFD116E0A269934209DB236816F8012CEF
:105180001A70236819780A29EAD1284602E016F82D
:10519000011C2846224601F077FA421C5042504139
:1051A000D3E7002B15DAA269934208DB23680A22B1
:1051B0001A702368197891420FD1284601E02846D9
:1051C0000A21224601F060FA431C5842584130B18E
:1051D000BCE723680A221A702368013323600A207F
:1051E00070BD00BF209D0008409D0008609D000824
:1051F000024B01461868FFF783BF00BF98020020EA
:10520000838903F00903092B01D1FEF715BB0020A8
:1052100070470000F8B50C46054618B183690BB914
:10522000FEF790FB394B9C4201D16C6808E0384B8B
:105230009C4201D1AC6803E0364B9C4208BFEC684D
:10524000A2890023636093B29E065AD458071AD4E9
:10525000D90605D4092342F040022B60A28150E018
:105260001A070BD528462146FEF7BCFA002848D17C
:10527000A389A06023F00803A381A061A38943F060
:105280000403A38110E0616B71B104F144039942FE
:1052900002D02846FEF78EFD236C63600020606319
:1052A00013B1E36B2360F8BD23691BB9284621467F
:1052B000FEF700FDA789BEB2B3070FD00123A3817B
:1052C000154B1649186806F00906FEF793FC092EDF
:1052D000A78103D128462146FEF700FA2269226001
:1052E000666A216A63692846B047002860600BDC63
:1052F000A38917BF002243F0200343F040036260FC
:10530000A3814FF0FF30F8BD0020F8BD209D0008BC
:10531000409D0008609D0008849D0008015200081F
:1053200038B50C46054618B183690BB9FEF70AFB80
:105330000E4B9C4201D16C6808E00D4B9C4201D1A0
:10534000AC6803E00B4B9C4208BFEC682846214642
:10535000FFF760FF38B96368013B636023685A1C3C
:105360002260187838BD4FF0FF3038BD209D00080E
:10537000409D0008609D00080A4631F0004110B5CC
:1053800003461BD00F48A2F58014844210D902F1C5
:10539000FF420C4802F5E002824209D9B1F5801FB4
:1053A00008D3094A914207D1B3FA83F0400910BDEE
:1053B000042010BD032010BD002010BD0028E6D140
:1053C000022010BDFFFFDF7F0000F07F38B5064CE4
:1053D0000023054608462360FCF7D4FA431C02D19B
:1053E000236803B12B6038BDEC130020F0B50A78B8
:1053F0005E2A13BF4B1C8B1C4A78002108BF012179
:10540000441E00F1FF0504F8011FAC42FBD10AB9AC
:10541000581EF0BDC1F10104E7B2875419782D2957
:1054200003F1010605D05D290ED079B10A46334655
:10543000F2E75D785D2DF9D09542F7DB023301325A
:10544000AA428754FBDBE9E73046F0BD1846F0BDC1
:1054500000290CBF022200224FF4806300F000B844
:105460002DE9F0411D463D4B1E6804460F4690460F
:1054700026B1B36913B93046FEF764FA384B9C4243
:1054800001D1746808E0374B9C4201D1B46803E055
:10549000354B9C4208BFF468B8F1020F5AD8002D72
:1054A00058DB30462146FEF79DF900236360A36177
:1054B000A3891B0603D530462169FEF77BFCA3892F
:1054C000B8F1020F23F08303A38112D037BB002D64
:1054D00008BF4FF480652846FEF73AFC0746C8B976
:1054E0004FF48060FEF734FC074688B94FF0FF3078
:1054F00000E00020A38943F00203A3810023A360FE
:1055000004F147032360236101236361BDE8F08157
:105510004FF48065A38943F08003A381B8F1010FA4
:1055200001BFA38943F00103A3816B4208BFA361BC
:105530000E4BB362A389276003F0080080B2276195
:10554000656148B113F0030F18BF0025A560002066
:10555000BDE8F0814FF0FF30BDE8F08198020020F7
:10556000209D0008409D0008609D0008C538000887
:10557000004870470000C07F1F2938B504460D461B
:1055800004D9162303604FF0FF3038BD426C12B1CE
:1055900052F821304BB9204600F030F82A46014637
:1055A0002046BDE8384000F017B8012B0AD0591C3E
:1055B00003D116230360012038BD002442F82540A2
:1055C00028469847002038BD024B01461868FFF76F
:1055D000D3BF00BF9802002038B5074C0023054612
:1055E00008461146236004F00FF8431C02D12368DB
:1055F00003B12B6038BD00BFEC13002003F0FCBFEB
:105600000EB400B59CB04FF40271ADF814106FF0F9
:105610000041049107914FF6FF711DABADF81610D4
:10562000084953F8042B029006900868019302A9D8
:1056300003F042F8029B00221A701CB05DF804EBE4
:1056400003B07047980200200EB430B59CB01FAC78
:105650004FF4017254F8045BADF8142002900690E8
:1056600000F06BF80B4B0B9300230F9314934FF642
:10567000FF73ADF81630084B0390079002A9186825
:1056800001942A46234603F063F91CB0BDE830407C
:1056900003B07047BF5600089802002010B50C46B2
:1056A000B1F90E1003F0A2FA0028ABBF636DA38915
:1056B0001B1823F48053ACBF6365A38110BD002089
:1056C00070472DE9F0411D468B89DB0507460C46E6
:1056D000164605D5B1F90E100022022302F03AFB5E
:1056E000A389B4F90E1023F48053A38138463246BF
:1056F0002B46BDE8F04101F01BB810B50C46B1F9DE
:105700000E1002F027FB431CA38915BF606523F42C
:10571000805343F48053A38118BFA38110BDB1F916
:105720000E1001F049B910F8012B11F8013B012AC4
:1057300028BF9A42F7D0D01A7047034613F8012BBE
:10574000002AFBD1181A0138704770B5AAB1451E5E
:1057500001396B7811F8014FA34205F1010606D11A
:105760006FF00104641B1444E04202D11C46181B74
:1057700070BD3546002BECD1F8E7104670BD30B552
:10578000036811F8014B01334CB11A78A2F14105BD
:10579000192D98BF2032A242F3D0002030BD036003
:1057A000012030BD2DE9F0410F46904602F0CCFDBE
:1057B00004460D46B8F1000F11D0C7F30A53C3F1E8
:1057C0006B03002B0BDD1B0503F17F55002405F552
:1057D000401522462B4603F0DDFBBDE8F081204654
:1057E0002946BDE8F08100002DE9F04F9FB000236D
:1057F00083468A4616921A934FF000084FF000092C
:105800001991199B1A780D2A05D8092A13D2002A52
:1058100000F0BE8112E02B2A06D02D2A02D0202AC9
:105820000CD108E0012200E0002209925A1C1992D2
:105830005B782BB9ACE101331993E2E700230993BC
:10584000199C2378302B5CD16378582B01D0782BAE
:105850004CD11AAB0093099B0193584619A9B14A40
:105860001BAB01F0A2FF10F00706054600F09B8578
:10587000062E05D1013400231994099300F093BD3D
:105880001A9A3AB11CA8352102F04CFE58461A99D2
:1058900002F0C2FA1B9A062E21D8DFE806F0040DAA
:1058A00008171C0D04004FF00009C84617E0DDF88A
:1058B0007080DDF8749012E01D9BDDF8708002F2BC
:1058C000334223F4801343EA025908E0DFF8589288
:1058D0004FF0000803E06FF000494FF0FF38290750
:1058E00040F1618549F0004900F05DBD199B5A1CEB
:1058F00019925B78302BF9D0002B00F054850123EE
:1059000000E0002300260493199B05930396354677
:10591000199C2778A7F13003DAB2092A10D8082D8C
:10592000D8BF03994FF00A02D8BF02FB013304F13C
:105930000104D4BF039302FB063601351994E7E74F
:10594000584602F003FA01680291584602F0FEF947
:105950000068FFF7F2FE029902462046FFF7F5FEC7
:1059600028B100203B462C46029007465DE002909D
:10597000584602F0EBF90068FFF7DFFE199B029929
:105980001A1819921B5C002D47D12846302B05D1DF
:10599000199B5A1C199201305B78F7E7A3F1310289
:1059A000082A48D8199A0290002005920446303BF4
:1059B00000F101012BD0029A0A44029207192146F4
:1059C000B94213D0013101F1FF3EBEF1080F06DCF0
:1059D000039A4FF00A0E0EFB02F20392F0E7102931
:1059E000DCBF4FF00A0E0EFB06F6E9E7204408285C
:1059F00000F1010405DC039A0A2101FB0233039341
:105A000004E0102CDCBF0A2101FB06360021199BA3
:105A1000581C19905B78084602E02C460846029113
:105A2000A3F130010929C2D90127652B01D0452BEB
:105A300060D174B905E0652B40F0C3840023029364
:105A4000012728B9049B002B00F0A280044600E047
:105A50000024DDF864A00AF1010319939AF80130DB
:105A60002B2B07D02D2B02D04FF0000C09E04FF06C
:105A7000010C01E04FF0000C0AF1020319939AF8AF
:105A80000230A3F13001092932D81946302904D156
:105A9000199B591C19915978F8E7A1F1310EBEF103
:105AA000080F0B4626D8199B06933039199B03F132
:105AB000010ECDF864E05B78A3F13002092A05D825
:105AC0004FF00A0E0EFB01313039EFE7069AC2EBB8
:105AD0000E0EBEF1080F44F61F6E03DC7145A8BF21
